{"abi":[{"type":"constructor","inputs":[{"name":"_owner","type":"address","internalType":"address"}],"stateMutability":"nonpayable"},{"type":"function","name":"ANY_DELEGATE","inputs":[],"outputs":[{"name":"","type":"address","internalType":"address"}],"stateMutability":"view"},{"type":"function","name":"DOMAIN_VERSION","inputs":[],"outputs":[{"name":"","type":"string","internalType":"string"}],"stateMutability":"view"},{"type":"function","name":"NAME","inputs":[],"outputs":[{"name":"","type":"string","internalType":"string"}],"stateMutability":"view"},{"type":"function","name":"ROOT_AUTHORITY","inputs":[],"outputs":[{"name":"","type":"bytes32","internalType":"bytes32"}],"stateMutability":"view"},{"type":"function","name":"VERSION","inputs":[],"outputs":[{"name":"","type":"string","internalType":"string"}],"stateMutability":"view"},{"type":"function","name":"acceptOwnership","inputs":[],"outputs":[],"stateMutability":"nonpayable"},{"type":"function","name":"disableDelegation","inputs":[{"name":"_delegation","type":"tuple","internalType":"struct Delegation","components":[{"name":"delegate","type":"address","internalType":"address"},{"name":"delegator","type":"address","internalType":"address"},{"name":"authority","type":"bytes32","internalType":"bytes32"},{"name":"caveats","type":"tuple[]","internalType":"struct Caveat[]","components":[{"name":"enforcer","type":"address","internalType":"address"},{"name":"terms","type":"bytes","internalType":"bytes"},{"name":"args","type":"bytes","internalType":"bytes"}]},{"name":"salt","type":"uint256","internalType":"uint256"},{"name":"signature","type":"bytes","internalType":"bytes"}]}],"outputs":[],"stateMutability":"nonpayable"},{"type":"function","name":"disabledDelegations","inputs":[{"name":"delegationHash","type":"bytes32","internalType":"bytes32"}],"outputs":[{"name":"isDisabled","type":"bool","internalType":"bool"}],"stateMutability":"view"},{"type":"function","name":"eip712Domain","inputs":[],"outputs":[{"name":"fields","type":"bytes1","internalType":"bytes1"},{"name":"name","type":"string","internalType":"string"},{"name":"version","type":"string","internalType":"string"},{"name":"chainId","type":"uint256","internalType":"uint256"},{"name":"verifyingContract","type":"address","internalType":"address"},{"name":"salt","type":"bytes32","internalType":"bytes32"},{"name":"extensions","type":"uint256[]","internalType":"uint256[]"}],"stateMutability":"view"},{"type":"function","name":"enableDelegation","inputs":[{"name":"_delegation","type":"tuple","internalType":"struct Delegation","components":[{"name":"delegate","type":"address","internalType":"address"},{"name":"delegator","type":"address","internalType":"address"},{"name":"authority","type":"bytes32","internalType":"bytes32"},{"name":"caveats","type":"tuple[]","internalType":"struct Caveat[]","components":[{"name":"enforcer","type":"address","internalType":"address"},{"name":"terms","type":"bytes","internalType":"bytes"},{"name":"args","type":"bytes","internalType":"bytes"}]},{"name":"salt","type":"uint256","internalType":"uint256"},{"name":"signature","type":"bytes","internalType":"bytes"}]}],"outputs":[],"stateMutability":"nonpayable"},{"type":"function","name":"getDelegationHash","inputs":[{"name":"_input","type":"tuple","internalType":"struct Delegation","components":[{"name":"delegate","type":"address","internalType":"address"},{"name":"delegator","type":"address","internalType":"address"},{"name":"authority","type":"bytes32","internalType":"bytes32"},{"name":"caveats","type":"tuple[]","internalType":"struct Caveat[]","components":[{"name":"enforcer","type":"address","internalType":"address"},{"name":"terms","type":"bytes","internalType":"bytes"},{"name":"args","type":"bytes","internalType":"bytes"}]},{"name":"salt","type":"uint256","internalType":"uint256"},{"name":"signature","type":"bytes","internalType":"bytes"}]}],"outputs":[{"name":"","type":"bytes32","internalType":"bytes32"}],"stateMutability":"pure"},{"type":"function","name":"getDomainHash","inputs":[],"outputs":[{"name":"","type":"bytes32","internalType":"bytes32"}],"stateMutability":"view"},{"type":"function","name":"owner","inputs":[],"outputs":[{"name":"","type":"address","internalType":"address"}],"stateMutability":"view"},{"type":"function","name":"pause","inputs":[],"outputs":[],"stateMutability":"nonpayable"},{"type":"function","name":"paused","inputs":[],"outputs":[{"name":"","type":"bool","internalType":"bool"}],"stateMutability":"view"},{"type":"function","name":"pendingOwner","inputs":[],"outputs":[{"name":"","type":"address","internalType":"address"}],"stateMutability":"view"},{"type":"function","name":"redeemDelegations","inputs":[{"name":"_permissionContexts","type":"bytes[]","internalType":"bytes[]"},{"name":"_modes","type":"bytes32[]","internalType":"ModeCode[]"},{"name":"_executionCallDatas","type":"bytes[]","internalType":"bytes[]"}],"outputs":[],"stateMutability":"nonpayable"},{"type":"function","name":"renounceOwnership","inputs":[],"outputs":[],"stateMutability":"nonpayable"},{"type":"function","name":"transferOwnership","inputs":[{"name":"newOwner","type":"address","internalType":"address"}],"outputs":[],"stateMutability":"nonpayable"},{"type":"function","name":"unpause","inputs":[],"outputs":[],"stateMutability":"nonpayable"},{"type":"event","name":"DisabledDelegation","inputs":[{"name":"delegationHash","type":"bytes32","indexed":true,"internalType":"bytes32"},{"name":"delegator","type":"address","indexed":true,"internalType":"address"},{"name":"delegate","type":"address","indexed":true,"internalType":"address"},{"name":"delegation","type":"tuple","indexed":false,"internalType":"struct Delegation","components":[{"name":"delegate","type":"address","internalType":"address"},{"name":"delegator","type":"address","internalType":"address"},{"name":"authority","type":"bytes32","internalType":"bytes32"},{"name":"caveats","type":"tuple[]","internalType":"struct Caveat[]","components":[{"name":"enforcer","type":"address","internalType":"address"},{"name":"terms","type":"bytes","internalType":"bytes"},{"name":"args","type":"bytes","internalType":"bytes"}]},{"name":"salt","type":"uint256","internalType":"uint256"},{"name":"signature","type":"bytes","internalType":"bytes"}]}],"anonymous":false},{"type":"event","name":"EIP712DomainChanged","inputs":[],"anonymous":false},{"type":"event","name":"EnabledDelegation","inputs":[{"name":"delegationHash","type":"bytes32","indexed":true,"internalType":"bytes32"},{"name":"delegator","type":"address","indexed":true,"internalType":"address"},{"name":"delegate","type":"address","indexed":true,"internalType":"address"},{"name":"delegation","type":"tuple","indexed":false,"internalType":"struct Delegation","components":[{"name":"delegate","type":"address","internalType":"address"},{"name":"delegator","type":"address","internalType":"address"},{"name":"authority","type":"bytes32","internalType":"bytes32"},{"name":"caveats","type":"tuple[]","internalType":"struct Caveat[]","components":[{"name":"enforcer","type":"address","internalType":"address"},{"name":"terms","type":"bytes","internalType":"bytes"},{"name":"args","type":"bytes","internalType":"bytes"}]},{"name":"salt","type":"uint256","internalType":"uint256"},{"name":"signature","type":"bytes","internalType":"bytes"}]}],"anonymous":false},{"type":"event","name":"OwnershipTransferStarted","inputs":[{"name":"previousOwner","type":"address","indexed":true,"internalType":"address"},{"name":"newOwner","type":"address","indexed":true,"internalType":"address"}],"anonymous":false},{"type":"event","name":"OwnershipTransferred","inputs":[{"name":"previousOwner","type":"address","indexed":true,"internalType":"address"},{"name":"newOwner","type":"address","indexed":true,"internalType":"address"}],"anonymous":false},{"type":"event","name":"Paused","inputs":[{"name":"account","type":"address","indexed":false,"internalType":"address"}],"anonymous":false},{"type":"event","name":"RedeemedDelegation","inputs":[{"name":"rootDelegator","type":"address","indexed":true,"internalType":"address"},{"name":"redeemer","type":"address","indexed":true,"internalType":"address"},{"name":"delegation","type":"tuple","indexed":false,"internalType":"struct Delegation","components":[{"name":"delegate","type":"address","internalType":"address"},{"name":"delegator","type":"address","internalType":"address"},{"name":"authority","type":"bytes32","internalType":"bytes32"},{"name":"caveats","type":"tuple[]","internalType":"struct Caveat[]","components":[{"name":"enforcer","type":"address","internalType":"address"},{"name":"terms","type":"bytes","internalType":"bytes"},{"name":"args","type":"bytes","internalType":"bytes"}]},{"name":"salt","type":"uint256","internalType":"uint256"},{"name":"signature","type":"bytes","internalType":"bytes"}]}],"anonymous":false},{"type":"event","name":"SetDomain","inputs":[{"name":"domainHash","type":"bytes32","indexed":true,"internalType":"bytes32"},{"name":"name","type":"string","indexed":false,"internalType":"string"},{"name":"domainVersion","type":"string","indexed":false,"internalType":"string"},{"name":"chainId","type":"uint256","indexed":false,"internalType":"uint256"},{"name":"contractAddress","type":"address","indexed":true,"internalType":"address"}],"anonymous":false},{"type":"event","name":"Unpaused","inputs":[{"name":"account","type":"address","indexed":false,"internalType":"address"}],"anonymous":false},{"type":"error","name":"AlreadyDisabled","inputs":[]},{"type":"error","name":"AlreadyEnabled","inputs":[]},{"type":"error","name":"BatchDataLengthMismatch","inputs":[]},{"type":"error","name":"CannotUseADisabledDelegation","inputs":[]},{"type":"error","name":"ECDSAInvalidSignature","inputs":[]},{"type":"error","name":"ECDSAInvalidSignatureLength","inputs":[{"name":"length","type":"uint256","internalType":"uint256"}]},{"type":"error","name":"ECDSAInvalidSignatureS","inputs":[{"name":"s","type":"bytes32","internalType":"bytes32"}]},{"type":"error","name":"EmptySignature","inputs":[]},{"type":"error","name":"EnforcedPause","inputs":[]},{"type":"error","name":"ExpectedPause","inputs":[]},{"type":"error","name":"InvalidAuthority","inputs":[]},{"type":"error","name":"InvalidDelegate","inputs":[]},{"type":"error","name":"InvalidDelegator","inputs":[]},{"type":"error","name":"InvalidEOASignature","inputs":[]},{"type":"error","name":"InvalidERC1271Signature","inputs":[]},{"type":"error","name":"InvalidShortString","inputs":[]},{"type":"error","name":"OwnableInvalidOwner","inputs":[{"name":"owner","type":"address","internalType":"address"}]},{"type":"error","name":"OwnableUnauthorizedAccount","inputs":[{"name":"account","type":"address","internalType":"address"}]},{"type":"error","name":"StringTooLong","inputs":[{"name":"str","type":"string","internalType":"string"}]}],"bytecode":{"object":"0x6101606040523480156200001257600080fd5b506040516200334f3803806200334f833981016040819052620000359162000384565b60408051808201825260118152702232b632b3b0ba34b7b726b0b730b3b2b960791b602080830191909152825180840190935260018352603160f81b9083015290826001600160a01b038116620000a757604051631e4fbdf760e01b8152600060048201526024015b60405180910390fd5b620000b28162000204565b506001805460ff60a01b19169055620000cd82600262000222565b61012052620000de81600362000222565b61014052815160208084019190912060e052815190820120610100524660a0526200015b60e05161010051604080516000805160206200332f83398151915260208201529081019290925260608201524660808201523060a082015260009060c00160405160208183030381529060405280519060200120905090565b60805250503060c0526000620001706200025b565b9050306001600160a01b0316817f04a46d9007577c7ff1e513b900545162ec25d25991ae3dc60cf26ec01a84806d604051806040016040528060118152602001702232b632b3b0ba34b7b726b0b730b3b2b960791b815250604051806040016040528060018152602001603160f81b81525046604051620001f493929190620003fe565b60405180910390a35050620005e5565b600180546001600160a01b03191690556200021f81620002f1565b50565b600060208351101562000242576200023a8362000341565b905062000255565b816200024f8482620004df565b5060ff90505b92915050565b600060c0516001600160a01b0316306001600160a01b031614801562000282575060a05146145b156200028f575060805190565b620002ec60e05161010051604080516000805160206200332f83398151915260208201529081019290925260608201524660808201523060a082015260009060c00160405160208183030381529060405280519060200120905090565b905090565b600080546001600160a01b038381166001600160a01b0319831681178455604051919092169283917f8be0079c531659141344cd1fd0a4f28419497f9722a3daafe3b4186f6b6457e09190a35050565b600080829050601f815111156200036f578260405163305a27a960e01b81526004016200009e9190620005ab565b80516200037c82620005c0565b179392505050565b6000602082840312156200039757600080fd5b81516001600160a01b0381168114620003af57600080fd5b9392505050565b6000815180845260005b81811015620003de57602081850181015186830182015201620003c0565b506000602082860101526020601f19601f83011685010191505092915050565b606081526000620004136060830186620003b6565b8281036020840152620004278186620003b6565b915050826040830152949350505050565b634e487b7160e01b600052604160045260246000fd5b600181811c908216806200046357607f821691505b6020821081036200048457634e487b7160e01b600052602260045260246000fd5b50919050565b601f821115620004da576000816000526020600020601f850160051c81016020861015620004b55750805b601f850160051c820191505b81811015620004d657828155600101620004c1565b5050505b505050565b81516001600160401b03811115620004fb57620004fb62000438565b62000513816200050c84546200044e565b846200048a565b602080601f8311600181146200054b5760008415620005325750858301515b600019600386901b1c1916600185901b178555620004d6565b600085815260208120601f198616915b828110156200057c578886015182559484019460019091019084016200055b565b50858210156200059b5787850151600019600388901b60f8161c191681555b5050505050600190811b01905550565b602081526000620003af6020830184620003b6565b80516020808301519190811015620004845760001960209190910360031b1b16919050565b60805160a05160c05160e051610100516101205161014051612cef620006406000396000611bda01526000611bad01526000611b1201526000611aea01526000611a4501526000611a6f01526000611a990152612cef6000f3fe608060405234801561001057600080fd5b506004361061012c5760003560e01c806383ebb771116100ad578063acb8cc4911610071578063acb8cc491461027f578063cef6d2091461029f578063e30c3978146102b2578063f2fde38b146102c3578063ffa1ad74146102d657600080fd5b806383ebb771146102065780638456cb591461020e57806384b0196e146102165780638da5cb5b14610231578063a3f4df7e1461024257600080fd5b806358909ebc116100f457806358909ebc146101b05780635c975abb146101d157806366134607146101e3578063715018a6146101f657806379ba5097146101fe57600080fd5b80631b13cac2146101315780632d40d0521461014d5780633ed01015146101805780633f4ba83a14610195578063499340471461019d575b600080fd5b61013a60001981565b6040519081526020015b60405180910390f35b61017061015b3660046120e6565b60046020526000908152604090205460ff1681565b6040519015158152602001610144565b61019361018e3660046120ff565b6102fa565b005b6101936103f4565b6101936101ab3660046120ff565b610406565b6101b9610a1181565b6040516001600160a01b039091168152602001610144565b600154600160a01b900460ff16610170565b61013a6101f13660046120ff565b6104f6565b61019361050f565b610193610521565b61013a61056a565b610193610579565b61021e610589565b6040516101449796959493929190612190565b6000546001600160a01b03166101b9565b610272604051806040016040528060118152602001702232b632b3b0ba34b7b726b0b730b3b2b960791b81525081565b6040516101449190612229565b610272604051806040016040528060018152602001603160f81b81525081565b6101936102ad366004612287565b6105cf565b6001546001600160a01b03166101b9565b6101936102d136600461233c565b611891565b610272604051806040016040528060058152602001640312e332e360dc1b81525081565b61030a604082016020830161233c565b6001600160a01b03811633146103335760405163b9f0f17160e01b815260040160405180910390fd5b600061033e836104f6565b60008181526004602052604090205490915060ff1661037057604051637952fbad60e11b815260040160405180910390fd5b6000818152600460209081526040909120805460ff191690556103959084018461233c565b6001600160a01b03166103ae604085016020860161233c565b6001600160a01b0316827f3feadce88fc1b49db633a56fd5307ed6ee18734df83bcc4011daa720c9cd95f1866040516103e79190612484565b60405180910390a4505050565b6103fc611902565b61040461192f565b565b610416604082016020830161233c565b6001600160a01b038116331461043f5760405163b9f0f17160e01b815260040160405180910390fd5b600061044a836104f6565b60008181526004602052604090205490915060ff161561047c57604051625ecddb60e01b815260040160405180910390fd5b6000818152600460209081526040909120805460ff191660011790556104a49084018461233c565b6001600160a01b03166104bd604085016020860161233c565b6001600160a01b0316827fea589ba9473ee1fe77d352c7ed919747715a5d22931b972de9b02a907c66d5dd866040516103e79190612484565b600061050961050483612823565b611984565b92915050565b610517611902565b6104046000611a1f565b60015433906001600160a01b0316811461055e5760405163118cdaa760e01b81526001600160a01b03821660048201526024015b60405180910390fd5b61056781611a1f565b50565b6000610574611a38565b905090565b610581611902565b610404611b63565b60006060806000806000606061059d611ba6565b6105a5611bd3565b60408051600080825260208201909252600f60f81b9b939a50919850469750309650945092509050565b6105d7611c00565b8481811415806105e75750808414155b1561060557604051631bcaf69f60e01b815260040160405180910390fd5b6000816001600160401b0381111561061f5761061f612555565b60405190808252806020026020018201604052801561065257816020015b606081526020019060019003908161063d5790505b5090506000826001600160401b0381111561066f5761066f612555565b6040519080825280602002602001820160405280156106a257816020015b606081526020019060019003908161068d5790505b50905060005b83811015610c815760008a8a838181106106c4576106c461282f565b90506020028101906106d69190612845565b8101906106e3919061288b565b905080516000036107d1576040805160008082526020820190925290610765565b6107526040518060c0016040528060006001600160a01b0316815260200160006001600160a01b03168152602001600080191681526020016060815260200160008152602001606081525090565b8152602001906001900390816107045790505b508483815181106107785761077861282f565b602090810291909101015260006040519080825280602002602001820160405280156107ae578160200160208202803683370190505b508383815181106107c1576107c161282f565b6020026020010181905250610c78565b808483815181106107e4576107e461282f565b6020026020010181905250600081516001600160401b0381111561080a5761080a612555565b604051908082528060200260200182016040528015610833578160200160208202803683370190505b509050808484815181106108495761084961282f565b6020026020010181905250336001600160a01b0316826000815181106108715761087161282f565b6020026020010151600001516001600160a01b0316141580156108c65750610a116001600160a01b0316826000815181106108ae576108ae61282f565b6020026020010151600001516001600160a01b031614155b156108e457604051632d618d8160e21b815260040160405180910390fd5b60005b8251811015610ab55760008382815181106109045761090461282f565b6020026020010151905061091781611984565b8383815181106109295761092961282f565b60200260200101818152505080602001516001600160a01b03163b6000036109dc57600061099e61099461095b61056a565b86868151811061096d5761096d61282f565b602002602001015160405161190160f01b8152600281019290925260228201526042902090565b8360a00151611c2b565b905081602001516001600160a01b0316816001600160a01b0316146109d657604051630f6d9e4760e21b815260040160405180910390fd5b50610aac565b60006109fb6109e961056a565b85858151811061096d5761096d61282f565b9050600082602001516001600160a01b0316631626ba7e838560a001516040518363ffffffff1660e01b8152600401610a3592919061293b565b602060405180830381865afa158015610a52573d6000803e3d6000fd5b505050506040513d601f19601f82011682018060405250810190610a76919061295c565b6001600160e01b0319169050630b135d3f60e11b8114610aa95760405163155ff42760e01b815260040160405180910390fd5b50505b506001016108e7565b5060005b8251811015610c755760046000838381518110610ad857610ad861282f565b60209081029190910181015182528101919091526040016000205460ff1615610b14576040516302dd502960e11b815260040160405180910390fd5b60018351610b22919061299c565b8114610c2b5781610b348260016129af565b81518110610b4457610b4461282f565b6020026020010151838281518110610b5e57610b5e61282f565b60200260200101516040015114610b8857604051636f6a1b8760e11b815260040160405180910390fd5b600083610b968360016129af565b81518110610ba657610ba661282f565b6020026020010151600001519050610a116001600160a01b0316816001600160a01b031614158015610c075750806001600160a01b0316848381518110610bef57610bef61282f565b6020026020010151602001516001600160a01b031614155b15610c2557604051632d618d8160e21b815260040160405180910390fd5b50610c6d565b60001960001b838281518110610c4357610c4361282f565b60200260200101516040015114610c6d57604051636f6a1b8760e11b815260040160405180910390fd5b600101610ab9565b50505b506001016106a8565b5060005b83811015610ea6576000838281518110610ca157610ca161282f565b6020026020010151511115610e9e5760005b838281518110610cc557610cc561282f565b602002602001015151811015610e9c576000848381518110610ce957610ce961282f565b60200260200101518281518110610d0257610d0261282f565b602002602001015160600151905060005b8151811015610e92576000828281518110610d3057610d3061282f565b6020026020010151600001519050806001600160a01b031663414c3e33848481518110610d5f57610d5f61282f565b602002602001015160200151858581518110610d7d57610d7d61282f565b6020026020010151604001518f8f8a818110610d9b57610d9b61282f565b905060200201358e8e8b818110610db457610db461282f565b9050602002810190610dc69190612845565b8c8c81518110610dd857610dd861282f565b60200260200101518b81518110610df157610df161282f565b60200260200101518e8d81518110610e0b57610e0b61282f565b60200260200101518c81518110610e2457610e2461282f565b602002602001015160200151336040518963ffffffff1660e01b8152600401610e549897969594939291906129c2565b600060405180830381600087803b158015610e6e57600080fd5b505af1158015610e82573d6000803e3d6000fd5b5050505050806001019050610d13565b5050600101610cb3565b505b600101610c85565b5060005b838110156114ca57828181518110610ec457610ec461282f565b602002602001015151600003610f82573363d691c964898984818110610eec57610eec61282f565b90506020020135888885818110610f0557610f0561282f565b9050602002810190610f179190612845565b6040518463ffffffff1660e01b8152600401610f3593929190612a2d565b6000604051808303816000875af1158015610f54573d6000803e3d6000fd5b505050506040513d6000823e601f3d908101601f19168201604052610f7c9190810190612a50565b506114c2565b60005b838281518110610f9757610f9761282f565b60200260200101515181101561116e576000848381518110610fbb57610fbb61282f565b60200260200101518281518110610fd457610fd461282f565b602002602001015160600151905060005b81518110156111645760008282815181106110025761100261282f565b6020026020010151600001519050806001600160a01b031663a145832a8484815181106110315761103161282f565b60200260200101516020015185858151811061104f5761104f61282f565b6020026020010151604001518f8f8a81811061106d5761106d61282f565b905060200201358e8e8b8181106110865761108661282f565b90506020028101906110989190612845565b8c8c815181106110aa576110aa61282f565b60200260200101518b815181106110c3576110c361282f565b60200260200101518e8d815181106110dd576110dd61282f565b60200260200101518c815181106110f6576110f661282f565b602002602001015160200151336040518963ffffffff1660e01b81526004016111269897969594939291906129c2565b600060405180830381600087803b15801561114057600080fd5b505af1158015611154573d6000803e3d6000fd5b5050505050806001019050610fe5565b5050600101610f85565b508281815181106111815761118161282f565b6020026020010151600184838151811061119d5761119d61282f565b6020026020010151516111b0919061299c565b815181106111c0576111c061282f565b6020026020010151602001516001600160a01b031663d691c9648989848181106111ec576111ec61282f565b905060200201358888858181106112055761120561282f565b90506020028101906112179190612845565b6040518463ffffffff1660e01b815260040161123593929190612a2d565b6000604051808303816000875af1158015611254573d6000803e3d6000fd5b505050506040513d6000823e601f3d908101601f1916820160405261127c9190810190612a50565b5060008382815181106112915761129161282f565b60200260200101515190505b80156114c05760008483815181106112b7576112b761282f565b60200260200101516001836112cc919061299c565b815181106112dc576112dc61282f565b60200260200101516060015190506000815190505b80156114ad5760008261130560018461299c565b815181106113155761131561282f565b6020026020010151600001519050806001600160a01b031663d3eddcc584600185611340919061299c565b815181106113505761135061282f565b6020026020010151602001518560018661136a919061299c565b8151811061137a5761137a61282f565b6020026020010151604001518f8f8a8181106113985761139861282f565b905060200201358e8e8b8181106113b1576113b161282f565b90506020028101906113c39190612845565b8c8c815181106113d5576113d561282f565b602002602001015160018c6113ea919061299c565b815181106113fa576113fa61282f565b60200260200101518e8d815181106114145761141461282f565b602002602001015160018d611429919061299c565b815181106114395761143961282f565b602002602001015160200151336040518963ffffffff1660e01b81526004016114699897969594939291906129c2565b600060405180830381600087803b15801561148357600080fd5b505af1158015611497573d6000803e3d6000fd5b5050505050806114a690612b2f565b90506112f1565b5050806114b990612b2f565b905061129d565b505b600101610eaa565b5060005b838110156117465760008382815181106114ea576114ea61282f565b602002602001015151111561173e57600083828151811061150d5761150d61282f565b60200260200101515190505b801561173c5760008483815181106115335761153361282f565b6020026020010151600183611548919061299c565b815181106115585761155861282f565b60200260200101516060015190506000815190505b80156117295760008261158160018461299c565b815181106115915761159161282f565b6020026020010151600001519050806001600160a01b031663ed463367846001856115bc919061299c565b815181106115cc576115cc61282f565b602002602001015160200151856001866115e6919061299c565b815181106115f6576115f661282f565b6020026020010151604001518f8f8a8181106116145761161461282f565b905060200201358e8e8b81811061162d5761162d61282f565b905060200281019061163f9190612845565b8c8c815181106116515761165161282f565b602002602001015160018c611666919061299c565b815181106116765761167661282f565b60200260200101518e8d815181106116905761169061282f565b602002602001015160018d6116a5919061299c565b815181106116b5576116b561282f565b602002602001015160200151336040518963ffffffff1660e01b81526004016116e59897969594939291906129c2565b600060405180830381600087803b1580156116ff57600080fd5b505af1158015611713573d6000803e3d6000fd5b50505050508061172290612b2f565b905061156d565b50508061173590612b2f565b9050611519565b505b6001016114ce565b5060005b838110156118855760008382815181106117665761176661282f565b602002602001015151111561187d5760005b83828151811061178a5761178a61282f565b60200260200101515181101561187b57336001600160a01b03168483815181106117b6576117b661282f565b602002602001015160018685815181106117d2576117d261282f565b6020026020010151516117e5919061299c565b815181106117f5576117f561282f565b6020026020010151602001516001600160a01b03167f40dadaa36c6c2e3d7317e24757451ffb2d603d875f0ad5e92c5dd156573b187386858151811061183d5761183d61282f565b602002602001015184815181106118565761185661282f565b602002602001015160405161186b9190612b46565b60405180910390a3600101611778565b505b60010161174a565b50505050505050505050565b611899611902565b600180546001600160a01b0383166001600160a01b031990911681179091556118ca6000546001600160a01b031690565b6001600160a01b03167f38d16b8cac22d99fc7c124b9cd0de2d3fa1faef420bfe791d8c362d765e2270060405160405180910390a350565b6000546001600160a01b031633146104045760405163118cdaa760e01b8152336004820152602401610555565b611937611c55565b6001805460ff60a01b191690557f5db9ee0a495bf2e6ff9c91a7834c1ba4fdd244a5e8aa4e537bd38aeae4b073aa335b6040516001600160a01b03909116815260200160405180910390a1565b6000807f88c1d2ecf185adf710588203a5f263f0ff61be0d33da39792cde19ba9aa4331e8360000151846020015185604001516119c48760600151611c7f565b6080808901516040805160208101989098526001600160a01b03968716908801529490931660608601529184015260a083015260c082015260e0015b60408051601f1981840301815291905280516020909101209392505050565b600180546001600160a01b031916905561056781611d4a565b6000306001600160a01b037f000000000000000000000000000000000000000000000000000000000000000016148015611a9157507f000000000000000000000000000000000000000000000000000000000000000046145b15611abb57507f000000000000000000000000000000000000000000000000000000000000000090565b610574604080517f8b73c3c69bb8fe3d512ecc4cf759cc79239f7b179b0ffacaa9a75d522b39400f60208201527f0000000000000000000000000000000000000000000000000000000000000000918101919091527f000000000000000000000000000000000000000000000000000000000000000060608201524660808201523060a082015260009060c00160405160208183030381529060405280519060200120905090565b611b6b611c00565b6001805460ff60a01b1916600160a01b1790557f62e78cea01bee320cd4e420270b5ea74000d11b0c9f74754ebdbfc544b05a2586119673390565b60606105747f00000000000000000000000000000000000000000000000000000000000000006002611d9a565b60606105747f00000000000000000000000000000000000000000000000000000000000000006003611d9a565b600154600160a01b900460ff16156104045760405163d93c066560e01b815260040160405180910390fd5b600080600080611c3b8686611e45565b925092509250611c4b8282611e92565b5090949350505050565b600154600160a01b900460ff1661040457604051638dfc202b60e01b815260040160405180910390fd5b60008082516001600160401b03811115611c9b57611c9b612555565b604051908082528060200260200182016040528015611cc4578160200160208202803683370190505b50905060005b8351811015611d1a57611cf5848281518110611ce857611ce861282f565b6020026020010151611f4f565b828281518110611d0757611d0761282f565b6020908102919091010152600101611cca565b5080604051602001611d2c9190612c33565b60405160208183030381529060405280519060200120915050919050565b600080546001600160a01b038381166001600160a01b0319831681178455604051919092169283917f8be0079c531659141344cd1fd0a4f28419497f9722a3daafe3b4186f6b6457e09190a35050565b606060ff8314611db457611dad83611fb0565b9050610509565b818054611dc090612c69565b80601f0160208091040260200160405190810160405280929190818152602001828054611dec90612c69565b8015611e395780601f10611e0e57610100808354040283529160200191611e39565b820191906000526020600020905b815481529060010190602001808311611e1c57829003601f168201915b50505050509050610509565b60008060008351604103611e7f5760208401516040850151606086015160001a611e7188828585611fef565b955095509550505050611e8b565b50508151600091506002905b9250925092565b6000826003811115611ea657611ea6612ca3565b03611eaf575050565b6001826003811115611ec357611ec3612ca3565b03611ee15760405163f645eedf60e01b815260040160405180910390fd5b6002826003811115611ef557611ef5612ca3565b03611f165760405163fce698f760e01b815260048101829052602401610555565b6003826003811115611f2a57611f2a612ca3565b03611f4b576040516335e2f38360e21b815260048101829052602401610555565b5050565b6000807f80ad7e1b04ee6d994a125f4714ca0720908bd80ed16063ec8aee4b88e9253e2d8360000151846020015180519060200120604051602001611a00939291909283526001600160a01b03919091166020830152604082015260600190565b60606000611fbd836120be565b604080516020808252818301909252919250600091906020820181803683375050509182525060208101929092525090565b600080807f7fffffffffffffffffffffffffffffff5d576e7357a4501ddfe92f46681b20a084111561202a57506000915060039050826120b4565b604080516000808252602082018084528a905260ff891692820192909252606081018790526080810186905260019060a0016020604051602081039080840390855afa15801561207e573d6000803e3d6000fd5b5050604051601f1901519150506001600160a01b0381166120aa575060009250600191508290506120b4565b9250600091508190505b9450945094915050565b600060ff8216601f81111561050957604051632cd44ac360e21b815260040160405180910390fd5b6000602082840312156120f857600080fd5b5035919050565b60006020828403121561211157600080fd5b81356001600160401b0381111561212757600080fd5b820160c0818503121561213957600080fd5b9392505050565b60005b8381101561215b578181015183820152602001612143565b50506000910152565b6000815180845261217c816020860160208601612140565b601f01601f19169290920160200192915050565b60ff60f81b881681526000602060e060208401526121b160e084018a612164565b83810360408501526121c3818a612164565b606085018990526001600160a01b038816608086015260a0850187905284810360c08601528551808252602080880193509091019060005b81811015612217578351835292840192918401916001016121fb565b50909c9b505050505050505050505050565b6020815260006121396020830184612164565b60008083601f84011261224e57600080fd5b5081356001600160401b0381111561226557600080fd5b6020830191508360208260051b850101111561228057600080fd5b9250929050565b600080600080600080606087890312156122a057600080fd5b86356001600160401b03808211156122b757600080fd5b6122c38a838b0161223c565b909850965060208901359150808211156122dc57600080fd5b6122e88a838b0161223c565b9096509450604089013591508082111561230157600080fd5b5061230e89828a0161223c565b979a9699509497509295939492505050565b80356001600160a01b038116811461233757600080fd5b919050565b60006020828403121561234e57600080fd5b61213982612320565b6000808335601e1984360301811261236e57600080fd5b83016020810192503590506001600160401b0381111561238d57600080fd5b80360382131561228057600080fd5b81835281816020850137506000828201602090810191909152601f909101601f19169091010190565b60008383855260208086019550808560051b830101846000805b8881101561247657858403601f19018a52823536899003605e19018112612404578283fd5b880160606001600160a01b0361241983612320565b16865261242887830183612357565b828989015261243a838901828461239c565b92505050604061244c81840184612357565b93508783038289015261246083858361239c565b9d89019d975050509386019350506001016123df565b509198975050505050505050565b6020815260006001600160a01b038061249c85612320565b166020840152806124af60208601612320565b16604084015250604083013560608301526060830135601e198436030181126124d757600080fd5b83016020810190356001600160401b038111156124f357600080fd5b8060051b360382131561250557600080fd5b60c0608085015261251a60e0850182846123c5565b915050608084013560a084015261253460a0850185612357565b848303601f190160c086015261254b83828461239c565b9695505050505050565b634e487b7160e01b600052604160045260246000fd5b604051606081016001600160401b038111828210171561258d5761258d612555565b60405290565b60405160c081016001600160401b038111828210171561258d5761258d612555565b604051601f8201601f191681016001600160401b03811182821017156125dd576125dd612555565b604052919050565b60006001600160401b038211156125fe576125fe612555565b5060051b60200190565b60006001600160401b0382111561262157612621612555565b50601f01601f191660200190565b600082601f83011261264057600080fd5b813561265361264e82612608565b6125b5565b81815284602083860101111561266857600080fd5b816020850160208301376000918101602001919091529392505050565b600082601f83011261269657600080fd5b813560206126a661264e836125e5565b82815260059290921b840181019181810190868411156126c557600080fd5b8286015b848110156127745780356001600160401b03808211156126e95760008081fd5b908801906060828b03601f19018113156127035760008081fd5b61270b61256b565b612716888501612320565b81526040808501358481111561272c5760008081fd5b61273a8e8b8389010161262f565b838b0152509184013591838311156127525760008081fd5b6127608d8a8588010161262f565b9082015286525050509183019183016126c9565b509695505050505050565b600060c0828403121561279157600080fd5b612799612593565b90506127a482612320565b81526127b260208301612320565b60208201526040820135604082015260608201356001600160401b03808211156127db57600080fd5b6127e785838601612685565b60608401526080840135608084015260a084013591508082111561280a57600080fd5b506128178482850161262f565b60a08301525092915050565b6000610509368361277f565b634e487b7160e01b600052603260045260246000fd5b6000808335601e1984360301811261285c57600080fd5b8301803591506001600160401b0382111561287657600080fd5b60200191503681900382131561228057600080fd5b6000602080838503121561289e57600080fd5b82356001600160401b03808211156128b557600080fd5b818501915085601f8301126128c957600080fd5b81356128d761264e826125e5565b81815260059190911b830184019084810190888311156128f657600080fd5b8585015b8381101561292e578035858111156129125760008081fd5b6129208b89838a010161277f565b8452509186019186016128fa565b5098975050505050505050565b8281526040602082015260006129546040830184612164565b949350505050565b60006020828403121561296e57600080fd5b81516001600160e01b03198116811461213957600080fd5b634e487b7160e01b600052601160045260246000fd5b8181038181111561050957610509612986565b8082018082111561050957610509612986565b60e0815260006129d560e083018b612164565b82810360208401526129e7818b612164565b90508860408401528281036060840152612a0281888a61239c565b608084019690965250506001600160a01b0392831660a0820152911660c09091015295945050505050565b838152604060208201526000612a4760408301848661239c565b95945050505050565b60006020808385031215612a6357600080fd5b82516001600160401b0380821115612a7a57600080fd5b818501915085601f830112612a8e57600080fd5b8151612a9c61264e826125e5565b81815260059190911b83018401908481019088831115612abb57600080fd5b8585015b8381101561292e57805185811115612ad75760008081fd5b8601603f81018b13612ae95760008081fd5b878101516040612afb61264e83612608565b8281528d82848601011115612b105760008081fd5b612b1f838c8301848701612140565b8652505050918601918601612abf565b600081612b3e57612b3e612986565b506000190190565b602080825282516001600160a01b0390811683830152838201518116604080850191909152808501516060808601919091528086015160c06080870152805160e0870181905260009594610100600583901b8901810195919493870193919290890190885b81811015612c055760ff198b8903018352855187815116895289810151858b8b0152612bd9868b0182612164565b918701518a83038b890152919050612bf18183612164565b995050509488019491880191600101612bab565b50505050505050608085015160a085015260a08501519150601f198482030160c0850152612a478183612164565b815160009082906020808601845b83811015612c5d57815185529382019390820190600101612c41565b50929695505050505050565b600181811c90821680612c7d57607f821691505b602082108103612c9d57634e487b7160e01b600052602260045260246000fd5b50919050565b634e487b7160e01b600052602160045260246000fdfea2646970667358221220ca409e8c9582544b3b8d8c05ed7b77fb8b148a77f098b1aea58f1517227de31d64736f6c634300081700338b73c3c69bb8fe3d512ecc4cf759cc79239f7b179b0ffacaa9a75d522b39400f","linkReferences":{}},"methodIdentifiers":{"ANY_DELEGATE()":"58909ebc","DOMAIN_VERSION()":"acb8cc49","NAME()":"a3f4df7e","ROOT_AUTHORITY()":"1b13cac2","VERSION()":"ffa1ad74","acceptOwnership()":"79ba5097","disableDelegation((address,address,bytes32,(address,bytes,bytes)[],uint256,bytes))":"49934047","disabledDelegations(bytes32)":"2d40d052","eip712Domain()":"84b0196e","enableDelegation((address,address,bytes32,(address,bytes,bytes)[],uint256,bytes))":"3ed01015","getDelegationHash((address,address,bytes32,(address,bytes,bytes)[],uint256,bytes))":"66134607","getDomainHash()":"83ebb771","owner()":"8da5cb5b","pause()":"8456cb59","paused()":"5c975abb","pendingOwner()":"e30c3978","redeemDelegations(bytes[],bytes32[],bytes[])":"cef6d209","renounceOwnership()":"715018a6","transferOwnership(address)":"f2fde38b","unpause()":"3f4ba83a"},"id":53}