{
  "abi": [
    {
      "anonymous": false,
      "inputs": [
        {
          "indexed": true,
          "internalType": "address",
          "name": "previousOwner",
          "type": "address"
        },
        {
          "indexed": true,
          "internalType": "address",
          "name": "newOwner",
          "type": "address"
        }
      ],
      "name": "OwnershipTransferred",
      "type": "event"
    },
    {
      "inputs": [],
      "name": "count",
      "outputs": [
        {
          "internalType": "uint256",
          "name": "",
          "type": "uint256"
        }
      ],
      "stateMutability": "view",
      "type": "function"
    },
    {
      "inputs": [],
      "name": "increment",
      "outputs": [],
      "stateMutability": "nonpayable",
      "type": "function"
    },
    {
      "inputs": [],
      "name": "owner",
      "outputs": [
        {
          "internalType": "address",
          "name": "",
          "type": "address"
        }
      ],
      "stateMutability": "view",
      "type": "function"
    },
    {
      "inputs": [],
      "name": "renounceOwnership",
      "outputs": [],
      "stateMutability": "nonpayable",
      "type": "function"
    },
    {
      "inputs": [
        {
          "internalType": "uint256",
          "name": "newCount",
          "type": "uint256"
        }
      ],
      "name": "setCount",
      "outputs": [],
      "stateMutability": "nonpayable",
      "type": "function"
    },
    {
      "inputs": [
        {
          "internalType": "address",
          "name": "newOwner",
          "type": "address"
        }
      ],
      "name": "transferOwnership",
      "outputs": [],
      "stateMutability": "nonpayable",
      "type": "function"
    }
  ],
  "bytecode": {
    "object": "0x608060405234801561001057600080fd5b5061001a3361001f565b61006f565b600080546001600160a01b038381166001600160a01b0319831681178455604051919092169283917f8be0079c531659141344cd1fd0a4f28419497f9722a3daafe3b4186f6b6457e09190a35050565b6102d78061007e6000396000f3fe608060405234801561001057600080fd5b50600436106100625760003560e01c806306661abd14610067578063715018a6146100835780638da5cb5b1461008d578063d09de08a146100a8578063d14e62b8146100b0578063f2fde38b146100c3575b600080fd5b61007060015481565b6040519081526020015b60405180910390f35b61008b6100d6565b005b6000546040516001600160a01b03909116815260200161007a565b61008b6100ea565b61008b6100be366004610231565b600155565b61008b6100d136600461024a565b610109565b6100de610187565b6100e860006101e1565b565b6100f2610187565b600180549060006101028361027a565b9190505550565b610111610187565b6001600160a01b03811661017b5760405162461bcd60e51b815260206004820152602660248201527f4f776e61626c653a206e6577206f776e657220697320746865207a65726f206160448201526564647265737360d01b60648201526084015b60405180910390fd5b610184816101e1565b50565b6000546001600160a01b031633146100e85760405162461bcd60e51b815260206004820181905260248201527f4f776e61626c653a2063616c6c6572206973206e6f7420746865206f776e65726044820152606401610172565b600080546001600160a01b038381166001600160a01b0319831681178455604051919092169283917f8be0079c531659141344cd1fd0a4f28419497f9722a3daafe3b4186f6b6457e09190a35050565b60006020828403121561024357600080fd5b5035919050565b60006020828403121561025c57600080fd5b81356001600160a01b038116811461027357600080fd5b9392505050565b60006001820161029a57634e487b7160e01b600052601160045260246000fd5b506001019056fea2646970667358221220f811866051bf3d367afec9a046920da857d45d7933cb21481b365dd9c998880a64736f6c63430008150033",
    "linkReferences": {}
  },
  "methodIdentifiers": {
    "count()": "06661abd",
    "increment()": "d09de08a",
    "owner()": "8da5cb5b",
    "renounceOwnership()": "715018a6",
    "setCount(uint256)": "d14e62b8",
    "transferOwnership(address)": "f2fde38b"
  },
  "id": 115
}