{"abi":[{"type":"constructor","inputs":[{"name":"_delegationManager","type":"address","internalType":"contract IDelegationManager"},{"name":"_argsEqualityCheckEnforcer","type":"address","internalType":"address"}],"stateMutability":"nonpayable"},{"type":"function","name":"afterAllHook","inputs":[{"name":"_terms","type":"bytes","internalType":"bytes"},{"name":"_args","type":"bytes","internalType":"bytes"},{"name":"_mode","type":"bytes32","internalType":"ModeCode"},{"name":"","type":"bytes","internalType":"bytes"},{"name":"_delegationHash","type":"bytes32","internalType":"bytes32"},{"name":"_delegator","type":"address","internalType":"address"},{"name":"_redeemer","type":"address","internalType":"address"}],"outputs":[],"stateMutability":"nonpayable"},{"type":"function","name":"afterHook","inputs":[{"name":"","type":"bytes","internalType":"bytes"},{"name":"","type":"bytes","internalType":"bytes"},{"name":"","type":"bytes32","internalType":"ModeCode"},{"name":"","type":"bytes","internalType":"bytes"},{"name":"","type":"bytes32","internalType":"bytes32"},{"name":"","type":"address","internalType":"address"},{"name":"","type":"address","internalType":"address"}],"outputs":[],"stateMutability":"nonpayable"},{"type":"function","name":"argsEqualityCheckEnforcer","inputs":[],"outputs":[{"name":"","type":"address","internalType":"address"}],"stateMutability":"view"},{"type":"function","name":"beforeAllHook","inputs":[{"name":"","type":"bytes","internalType":"bytes"},{"name":"","type":"bytes","internalType":"bytes"},{"name":"","type":"bytes32","internalType":"ModeCode"},{"name":"","type":"bytes","internalType":"bytes"},{"name":"","type":"bytes32","internalType":"bytes32"},{"name":"","type":"address","internalType":"address"},{"name":"","type":"address","internalType":"address"}],"outputs":[],"stateMutability":"nonpayable"},{"type":"function","name":"beforeHook","inputs":[{"name":"","type":"bytes","internalType":"bytes"},{"name":"","type":"bytes","internalType":"bytes"},{"name":"","type":"bytes32","internalType":"ModeCode"},{"name":"","type":"bytes","internalType":"bytes"},{"name":"","type":"bytes32","internalType":"bytes32"},{"name":"","type":"address","internalType":"address"},{"name":"","type":"address","internalType":"address"}],"outputs":[],"stateMutability":"nonpayable"},{"type":"function","name":"delegationManager","inputs":[],"outputs":[{"name":"","type":"address","internalType":"contract IDelegationManager"}],"stateMutability":"view"},{"type":"function","name":"getTermsInfo","inputs":[{"name":"_terms","type":"bytes","internalType":"bytes"}],"outputs":[{"name":"recipient_","type":"address","internalType":"address"},{"name":"amount_","type":"uint256","internalType":"uint256"}],"stateMutability":"pure"},{"type":"event","name":"ValidatedPayment","inputs":[{"name":"sender","type":"address","indexed":true,"internalType":"address"},{"name":"delegationHash","type":"bytes32","indexed":true,"internalType":"bytes32"},{"name":"recipient","type":"address","indexed":true,"internalType":"address"},{"name":"delegator","type":"address","indexed":false,"internalType":"address"},{"name":"redeemer","type":"address","indexed":false,"internalType":"address"},{"name":"amount","type":"uint256","indexed":false,"internalType":"uint256"}],"anonymous":false}],"bytecode":{"object":"0x60c060405234801561001057600080fd5b506040516111b73803806111b783398101604081905261002f9161005e565b6001600160a01b039182166080521660a052610098565b6001600160a01b038116811461005b57600080fd5b50565b6000806040838503121561007157600080fd5b825161007c81610046565b602084015190925061008d81610046565b809150509250929050565b60805160a0516110e66100d16000396000818160a301526103c001526000818161011901528181610273015261065a01526110e66000f3fe608060405234801561001057600080fd5b506004361061007d5760003560e01c8063b99deb0e1161005b578063b99deb0e146100e2578063d3eddcc514610082578063ea4d3c9b14610114578063ed4633671461013b57600080fd5b8063414c3e3314610082578063a145832a14610082578063a42ff9311461009e575b600080fd5b61009c6100903660046108d5565b50505050505050505050565b005b6100c57f000000000000000000000000000000000000000000000000000000000000000081565b6040516001600160a01b0390911681526020015b60405180910390f35b6100f56100f03660046109a2565b61014e565b604080516001600160a01b0390931683526020830191909152016100d9565b6100c57f000000000000000000000000000000000000000000000000000000000000000081565b61009c6101493660046108d5565b6101fc565b600080603483146101be5760405162461bcd60e51b815260206004820152602f60248201527f4e6174697665546f6b656e5061796d656e74456e666f726365723a696e76616c60448201526e0d2c85ae8cae4dae65ad8cadccee8d608b1b60648201526084015b60405180910390fd5b6101cc6014600085876109e4565b6101d591610a0e565b60601c91506101e783601481876109e4565b6101f091610a43565b60001c90509250929050565b85600881901b61020d8160006107ac565b6102675760405162461bcd60e51b815260206004820152602560248201527f436176656174456e666f726365723a696e76616c69642d657865637574696f6e6044820152642d7479706560d81b60648201526084016101b5565b50336001600160a01b037f000000000000000000000000000000000000000000000000000000000000000016146102fb5760405162461bcd60e51b815260206004820152603260248201527f4e6174697665546f6b656e5061796d656e74456e666f726365723a6f6e6c792d6044820152713232b632b3b0ba34b7b716b6b0b730b3b2b960711b60648201526084016101b5565b6000806103088d8d61014e565b9092509050600061031b8b8d018d610c88565b905060008151116103945760405162461bcd60e51b815260206004820152603f60248201527f4e6174697665546f6b656e5061796d656e74456e666f726365723a696e76616c60448201527f69642d616c6c6f77616e63652d64656c65676174696f6e732d6c656e6774680060648201526084016101b5565b6000816000815181106103a9576103a9610dcd565b6020026020010151606001515111801561043057507f00000000000000000000000000000000000000000000000000000000000000006001600160a01b0316816000815181106103fb576103fb610dcd565b60200260200101516060015160008151811061041957610419610dcd565b6020026020010151600001516001600160a01b0316145b6104a25760405162461bcd60e51b815260206004820152603c60248201527f4e6174697665546f6b656e5061796d656e74456e666f726365723a6d6973736960448201527f6e672d61726773457175616c697479436865636b456e666f726365720000000060648201526084016101b5565b86856040516020016104d092919091825260601b6bffffffffffffffffffffffff1916602082015260340190565b604051602081830303815290604052816000815181106104f2576104f2610dcd565b60200260200101516060015160008151811061051057610510610dcd565b602090810291909101015160409081019190915280516001808252818301909252600091816020015b6060815260200190600190039081610539579050509050816040516020016105619190610e33565b6040516020818303038152906040528160008151811061058357610583610dcd565b6020908102919091010152604080516001808252818301909252600091816020015b60608152602001906001900390816105a55790505090506105d68585604051806020016040528060008152506107c3565b816000815181106105e9576105e9610dcd565b60209081029190910101526040805160018082528183019092526000918160200160208202803683370190505090506106206107f2565b8160008151811061063357610633610dcd565b602090810291909101015260405163cef6d20960e01b81526001600160a01b0380881631917f00000000000000000000000000000000000000000000000000000000000000009091169063cef6d2099061069590879086908890600401610fbf565b600060405180830381600087803b1580156106af57600080fd5b505af11580156106c3573d6000803e3d6000fd5b505050506001600160a01b038716316106dc8783611029565b8110156107435760405162461bcd60e51b815260206004820152602f60248201527f4e6174697665546f6b656e5061796d656e74456e666f726365723a7061796d6560448201526e1b9d0b5b9bdd0b5c9958d95a5d9959608a1b60648201526084016101b5565b604080516001600160a01b038d811682528c81166020830152918101899052908916908d9033907fac266e0d9b66169d0dc4479d531985bcec62dfd9d7992d0f6865afdbb7baa5e29060600160405180910390a450505050505050505050505050505050505050565b6001600160f81b0319828116908216145b92915050565b60608383836040516020016107da9392919061104a565b60405160208183030381529060405290509392505050565b600061080081808080610805565b905090565b604080516001600160f81b03198087166020830152851660218201526000602282018190526001600160e01b03198516602683015269ffffffffffffffffffff198416602a830152910160405160208183030381529060405261086790611089565b95945050505050565b60008083601f84011261088257600080fd5b50813567ffffffffffffffff81111561089a57600080fd5b6020830191508360208285010111156108b257600080fd5b9250929050565b80356001600160a01b03811681146108d057600080fd5b919050565b60008060008060008060008060008060e08b8d0312156108f457600080fd5b8a3567ffffffffffffffff8082111561090c57600080fd5b6109188e838f01610870565b909c509a5060208d013591508082111561093157600080fd5b61093d8e838f01610870565b909a50985060408d0135975060608d013591508082111561095d57600080fd5b5061096a8d828e01610870565b90965094505060808b0135925061098360a08c016108b9565b915061099160c08c016108b9565b90509295989b9194979a5092959850565b600080602083850312156109b557600080fd5b823567ffffffffffffffff8111156109cc57600080fd5b6109d885828601610870565b90969095509350505050565b600080858511156109f457600080fd5b83861115610a0157600080fd5b5050820193919092039150565b6bffffffffffffffffffffffff198135818116916014851015610a3b5780818660140360031b1b83161692505b505092915050565b803560208310156107bd57600019602084900360031b1b1692915050565b634e487b7160e01b600052604160045260246000fd5b6040516060810167ffffffffffffffff81118282101715610a9a57610a9a610a61565b60405290565b60405160c0810167ffffffffffffffff81118282101715610a9a57610a9a610a61565b604051601f8201601f1916810167ffffffffffffffff81118282101715610aec57610aec610a61565b604052919050565b600067ffffffffffffffff821115610b0e57610b0e610a61565b5060051b60200190565b600082601f830112610b2957600080fd5b813567ffffffffffffffff811115610b4357610b43610a61565b610b56601f8201601f1916602001610ac3565b818152846020838601011115610b6b57600080fd5b816020850160208301376000918101602001919091529392505050565b600082601f830112610b9957600080fd5b81356020610bae610ba983610af4565b610ac3565b82815260059290921b84018101918181019086841115610bcd57600080fd5b8286015b84811015610c7d57803567ffffffffffffffff80821115610bf25760008081fd5b908801906060828b03601f1901811315610c0c5760008081fd5b610c14610a77565b610c1f8885016108b9565b815260408085013584811115610c355760008081fd5b610c438e8b83890101610b18565b838b015250918401359183831115610c5b5760008081fd5b610c698d8a85880101610b18565b908201528652505050918301918301610bd1565b509695505050505050565b60006020808385031215610c9b57600080fd5b823567ffffffffffffffff80821115610cb357600080fd5b818501915085601f830112610cc757600080fd5b8135610cd5610ba982610af4565b81815260059190911b83018401908481019088831115610cf457600080fd5b8585015b83811015610dc057803585811115610d0f57600080fd5b860160c0818c03601f19011215610d265760008081fd5b610d2e610aa0565b610d398983016108b9565b81526040610d488184016108b9565b8a83015260608084013582840152608091508184013589811115610d6c5760008081fd5b610d7a8f8d83880101610b88565b82850152505060a0808401358284015260c0840135915088821115610d9f5760008081fd5b610dad8e8c84870101610b18565b9083015250845250918601918601610cf8565b5098975050505050505050565b634e487b7160e01b600052603260045260246000fd5b60005b83811015610dfe578181015183820152602001610de6565b50506000910152565b60008151808452610e1f816020860160208601610de3565b601f01601f19169290920160200192915050565b6000602080830181845280855180835260408601915060408160051b870101925083870160005b82811015610f5857603f19888603018452815160c0860160018060a01b038083511688528089840151168989015260408301516040890152606083015160c060608a015282815180855260e08b01915060e08160051b8c010194508b8301925060005b81811015610f1c5760df198c870301835283518581511687528d81015160608f890152610eed6060890182610e07565b9050604082015191508781036040890152610f088183610e07565b97505050928c0192918c0191600101610ebd565b50505050506080820151608088015260a0820151915086810360a0880152610f448183610e07565b965050509285019290850190600101610e5a565b5092979650505050505050565b60008282518085526020808601955060208260051b8401016020860160005b84811015610fb257601f19868403018952610fa0838351610e07565b98840198925090830190600101610f84565b5090979650505050505050565b606081526000610fd26060830186610f65565b82810360208481019190915285518083528682019282019060005b8181101561100957845183529383019391830191600101610fed565b5050848103604086015261101d8187610f65565b98975050505050505050565b808201808211156107bd57634e487b7160e01b600052601160045260246000fd5b6bffffffffffffffffffffffff198460601b1681528260148201526000825161107a816034850160208701610de3565b91909101603401949350505050565b805160208083015191908110156110aa576000198160200360031b1b821691505b5091905056fea264697066735822122085080b51672c95cef1f0b772853b91117f909ad9d873a40d2cad7c2b29f5117c64736f6c63430008170033","linkReferences":{}},"methodIdentifiers":{"afterAllHook(bytes,bytes,bytes32,bytes,bytes32,address,address)":"ed463367","afterHook(bytes,bytes,bytes32,bytes,bytes32,address,address)":"d3eddcc5","argsEqualityCheckEnforcer()":"a42ff931","beforeAllHook(bytes,bytes,bytes32,bytes,bytes32,address,address)":"414c3e33","beforeHook(bytes,bytes,bytes32,bytes,bytes32,address,address)":"a145832a","delegationManager()":"ea4d3c9b","getTermsInfo(bytes)":"b99deb0e"},"id":81}