{"abi":[{"type":"constructor","inputs":[{"name":"_delegationManager","type":"address","internalType":"contract IDelegationManager"},{"name":"_entryPoint","type":"address","internalType":"contract IEntryPoint"}],"stateMutability":"nonpayable"},{"type":"receive","stateMutability":"payable"},{"type":"function","name":"DOMAIN_VERSION","inputs":[],"outputs":[{"name":"","type":"string","internalType":"string"}],"stateMutability":"view"},{"type":"function","name":"NAME","inputs":[],"outputs":[{"name":"","type":"string","internalType":"string"}],"stateMutability":"view"},{"type":"function","name":"PACKED_USER_OP_TYPEHASH","inputs":[],"outputs":[{"name":"","type":"bytes32","internalType":"bytes32"}],"stateMutability":"view"},{"type":"function","name":"VERSION","inputs":[],"outputs":[{"name":"","type":"string","internalType":"string"}],"stateMutability":"view"},{"type":"function","name":"addDeposit","inputs":[],"outputs":[],"stateMutability":"payable"},{"type":"function","name":"delegationManager","inputs":[],"outputs":[{"name":"","type":"address","internalType":"contract IDelegationManager"}],"stateMutability":"view"},{"type":"function","name":"disableDelegation","inputs":[{"name":"_delegation","type":"tuple","internalType":"struct Delegation","components":[{"name":"delegate","type":"address","internalType":"address"},{"name":"delegator","type":"address","internalType":"address"},{"name":"authority","type":"bytes32","internalType":"bytes32"},{"name":"caveats","type":"tuple[]","internalType":"struct Caveat[]","components":[{"name":"enforcer","type":"address","internalType":"address"},{"name":"terms","type":"bytes","internalType":"bytes"},{"name":"args","type":"bytes","internalType":"bytes"}]},{"name":"salt","type":"uint256","internalType":"uint256"},{"name":"signature","type":"bytes","internalType":"bytes"}]}],"outputs":[],"stateMutability":"nonpayable"},{"type":"function","name":"eip712Domain","inputs":[],"outputs":[{"name":"fields","type":"bytes1","internalType":"bytes1"},{"name":"name","type":"string","internalType":"string"},{"name":"version","type":"string","internalType":"string"},{"name":"chainId","type":"uint256","internalType":"uint256"},{"name":"verifyingContract","type":"address","internalType":"address"},{"name":"salt","type":"bytes32","internalType":"bytes32"},{"name":"extensions","type":"uint256[]","internalType":"uint256[]"}],"stateMutability":"view"},{"type":"function","name":"enableDelegation","inputs":[{"name":"_delegation","type":"tuple","internalType":"struct Delegation","components":[{"name":"delegate","type":"address","internalType":"address"},{"name":"delegator","type":"address","internalType":"address"},{"name":"authority","type":"bytes32","internalType":"bytes32"},{"name":"caveats","type":"tuple[]","internalType":"struct Caveat[]","components":[{"name":"enforcer","type":"address","internalType":"address"},{"name":"terms","type":"bytes","internalType":"bytes"},{"name":"args","type":"bytes","internalType":"bytes"}]},{"name":"salt","type":"uint256","internalType":"uint256"},{"name":"signature","type":"bytes","internalType":"bytes"}]}],"outputs":[],"stateMutability":"nonpayable"},{"type":"function","name":"entryPoint","inputs":[],"outputs":[{"name":"","type":"address","internalType":"contract IEntryPoint"}],"stateMutability":"view"},{"type":"function","name":"execute","inputs":[{"name":"_execution","type":"tuple","internalType":"struct Execution","components":[{"name":"target","type":"address","internalType":"address"},{"name":"value","type":"uint256","internalType":"uint256"},{"name":"callData","type":"bytes","internalType":"bytes"}]}],"outputs":[],"stateMutability":"payable"},{"type":"function","name":"execute","inputs":[{"name":"_mode","type":"bytes32","internalType":"ModeCode"},{"name":"_executionCalldata","type":"bytes","internalType":"bytes"}],"outputs":[],"stateMutability":"payable"},{"type":"function","name":"executeFromExecutor","inputs":[{"name":"_mode","type":"bytes32","internalType":"ModeCode"},{"name":"_executionCalldata","type":"bytes","internalType":"bytes"}],"outputs":[{"name":"returnData_","type":"bytes[]","internalType":"bytes[]"}],"stateMutability":"payable"},{"type":"function","name":"getDeposit","inputs":[],"outputs":[{"name":"","type":"uint256","internalType":"uint256"}],"stateMutability":"view"},{"type":"function","name":"getDomainHash","inputs":[],"outputs":[{"name":"","type":"bytes32","internalType":"bytes32"}],"stateMutability":"view"},{"type":"function","name":"getNonce","inputs":[{"name":"_key","type":"uint192","internalType":"uint192"}],"outputs":[{"name":"","type":"uint256","internalType":"uint256"}],"stateMutability":"view"},{"type":"function","name":"getNonce","inputs":[],"outputs":[{"name":"","type":"uint256","internalType":"uint256"}],"stateMutability":"view"},{"type":"function","name":"getPackedUserOperationHash","inputs":[{"name":"_userOp","type":"tuple","internalType":"struct PackedUserOperation","components":[{"name":"sender","type":"address","internalType":"address"},{"name":"nonce","type":"uint256","internalType":"uint256"},{"name":"initCode","type":"bytes","internalType":"bytes"},{"name":"callData","type":"bytes","internalType":"bytes"},{"name":"accountGasLimits","type":"bytes32","internalType":"bytes32"},{"name":"preVerificationGas","type":"uint256","internalType":"uint256"},{"name":"gasFees","type":"bytes32","internalType":"bytes32"},{"name":"paymasterAndData","type":"bytes","internalType":"bytes"},{"name":"signature","type":"bytes","internalType":"bytes"}]}],"outputs":[{"name":"","type":"bytes32","internalType":"bytes32"}],"stateMutability":"view"},{"type":"function","name":"getPackedUserOperationTypedDataHash","inputs":[{"name":"_userOp","type":"tuple","internalType":"struct PackedUserOperation","components":[{"name":"sender","type":"address","internalType":"address"},{"name":"nonce","type":"uint256","internalType":"uint256"},{"name":"initCode","type":"bytes","internalType":"bytes"},{"name":"callData","type":"bytes","internalType":"bytes"},{"name":"accountGasLimits","type":"bytes32","internalType":"bytes32"},{"name":"preVerificationGas","type":"uint256","internalType":"uint256"},{"name":"gasFees","type":"bytes32","internalType":"bytes32"},{"name":"paymasterAndData","type":"bytes","internalType":"bytes"},{"name":"signature","type":"bytes","internalType":"bytes"}]}],"outputs":[{"name":"","type":"bytes32","internalType":"bytes32"}],"stateMutability":"view"},{"type":"function","name":"isDelegationDisabled","inputs":[{"name":"_delegationHash","type":"bytes32","internalType":"bytes32"}],"outputs":[{"name":"","type":"bool","internalType":"bool"}],"stateMutability":"view"},{"type":"function","name":"isValidSignature","inputs":[{"name":"_hash","type":"bytes32","internalType":"bytes32"},{"name":"_signature","type":"bytes","internalType":"bytes"}],"outputs":[{"name":"magicValue_","type":"bytes4","internalType":"bytes4"}],"stateMutability":"view"},{"type":"function","name":"onERC1155BatchReceived","inputs":[{"name":"","type":"address","internalType":"address"},{"name":"","type":"address","internalType":"address"},{"name":"","type":"uint256[]","internalType":"uint256[]"},{"name":"","type":"uint256[]","internalType":"uint256[]"},{"name":"","type":"bytes","internalType":"bytes"}],"outputs":[{"name":"","type":"bytes4","internalType":"bytes4"}],"stateMutability":"view"},{"type":"function","name":"onERC1155Received","inputs":[{"name":"","type":"address","internalType":"address"},{"name":"","type":"address","internalType":"address"},{"name":"","type":"uint256","internalType":"uint256"},{"name":"","type":"uint256","internalType":"uint256"},{"name":"","type":"bytes","internalType":"bytes"}],"outputs":[{"name":"","type":"bytes4","internalType":"bytes4"}],"stateMutability":"view"},{"type":"function","name":"onERC721Received","inputs":[{"name":"","type":"address","internalType":"address"},{"name":"","type":"address","internalType":"address"},{"name":"","type":"uint256","internalType":"uint256"},{"name":"","type":"bytes","internalType":"bytes"}],"outputs":[{"name":"","type":"bytes4","internalType":"bytes4"}],"stateMutability":"view"},{"type":"function","name":"redeemDelegations","inputs":[{"name":"_permissionContexts","type":"bytes[]","internalType":"bytes[]"},{"name":"_modes","type":"bytes32[]","internalType":"ModeCode[]"},{"name":"_executionCallDatas","type":"bytes[]","internalType":"bytes[]"}],"outputs":[],"stateMutability":"nonpayable"},{"type":"function","name":"supportsExecutionMode","inputs":[{"name":"_mode","type":"bytes32","internalType":"ModeCode"}],"outputs":[{"name":"","type":"bool","internalType":"bool"}],"stateMutability":"view"},{"type":"function","name":"supportsInterface","inputs":[{"name":"_interfaceId","type":"bytes4","internalType":"bytes4"}],"outputs":[{"name":"","type":"bool","internalType":"bool"}],"stateMutability":"view"},{"type":"function","name":"validateUserOp","inputs":[{"name":"_userOp","type":"tuple","internalType":"struct PackedUserOperation","components":[{"name":"sender","type":"address","internalType":"address"},{"name":"nonce","type":"uint256","internalType":"uint256"},{"name":"initCode","type":"bytes","internalType":"bytes"},{"name":"callData","type":"bytes","internalType":"bytes"},{"name":"accountGasLimits","type":"bytes32","internalType":"bytes32"},{"name":"preVerificationGas","type":"uint256","internalType":"uint256"},{"name":"gasFees","type":"bytes32","internalType":"bytes32"},{"name":"paymasterAndData","type":"bytes","internalType":"bytes"},{"name":"signature","type":"bytes","internalType":"bytes"}]},{"name":"","type":"bytes32","internalType":"bytes32"},{"name":"_missingAccountFunds","type":"uint256","internalType":"uint256"}],"outputs":[{"name":"validationData_","type":"uint256","internalType":"uint256"}],"stateMutability":"nonpayable"},{"type":"function","name":"withdrawDeposit","inputs":[{"name":"_withdrawAddress","type":"address","internalType":"address payable"},{"name":"_withdrawAmount","type":"uint256","internalType":"uint256"}],"outputs":[],"stateMutability":"nonpayable"},{"type":"event","name":"EIP712DomainChanged","inputs":[],"anonymous":false},{"type":"event","name":"SentPrefund","inputs":[{"name":"sender","type":"address","indexed":true,"internalType":"address"},{"name":"amount","type":"uint256","indexed":false,"internalType":"uint256"},{"name":"success","type":"bool","indexed":false,"internalType":"bool"}],"anonymous":false},{"type":"event","name":"SetDelegationManager","inputs":[{"name":"newDelegationManager","type":"address","indexed":true,"internalType":"contract IDelegationManager"}],"anonymous":false},{"type":"event","name":"SetEntryPoint","inputs":[{"name":"entryPoint","type":"address","indexed":true,"internalType":"contract IEntryPoint"}],"anonymous":false},{"type":"event","name":"TryExecuteUnsuccessful","inputs":[{"name":"batchExecutionindex","type":"uint256","indexed":false,"internalType":"uint256"},{"name":"result","type":"bytes","indexed":false,"internalType":"bytes"}],"anonymous":false},{"type":"error","name":"ECDSAInvalidSignature","inputs":[]},{"type":"error","name":"ECDSAInvalidSignatureLength","inputs":[{"name":"length","type":"uint256","internalType":"uint256"}]},{"type":"error","name":"ECDSAInvalidSignatureS","inputs":[{"name":"s","type":"bytes32","internalType":"bytes32"}]},{"type":"error","name":"ExecutionFailed","inputs":[]},{"type":"error","name":"InvalidEIP712NameLength","inputs":[]},{"type":"error","name":"InvalidEIP712VersionLength","inputs":[]},{"type":"error","name":"InvalidShortString","inputs":[]},{"type":"error","name":"NotDelegationManager","inputs":[]},{"type":"error","name":"NotEntryPoint","inputs":[]},{"type":"error","name":"NotEntryPointOrSelf","inputs":[]},{"type":"error","name":"NotSelf","inputs":[]},{"type":"error","name":"StringTooLong","inputs":[{"name":"str","type":"string","internalType":"string"}]},{"type":"error","name":"UnauthorizedCallContext","inputs":[]},{"type":"error","name":"UnsupportedCallType","inputs":[{"name":"callType","type":"bytes1","internalType":"CallType"}]},{"type":"error","name":"UnsupportedExecType","inputs":[{"name":"execType","type":"bytes1","internalType":"ExecType"}]}],"bytecode":{"object":"0x6101c060405230610160523480156200001757600080fd5b50604051620031b0380380620031b08339810160408190526200003a91620002b3565b81816040518060400160405280601981526020017f4549503737303253746174656c65737344656c654761746f7200000000000000815250604051806040016040528060018152602001603160f81b8152508181620000a46000836200021560201b90919060201c565b61012052620000b581600162000215565b61014052815160208084019190912060e052815190820120610100524660a0526200014360e05161010051604080517f8b73c3c69bb8fe3d512ecc4cf759cc79239f7b179b0ffacaa9a75d522b39400f60208201529081019290925260608201524660808201523060a082015260009060c00160405160208183030381529060405280519060200120905090565b60805250503060c0528151601f10156200017057604051631ad9af3960e21b815260040160405180910390fd5b601f8151111562000194576040516309203c9d60e41b815260040160405180910390fd5b6001600160a01b038085166101808190529084166101a0526040517fb2e8eb88b584ae71ef4e854c10847f4d39bd93e52599f147bfb4dcc8de52014d90600090a26040516001600160a01b038416907fee8699dc0e27105da2653bdba54be0edcaadc3e33890a3ad705517ffe9bf0a9990600090a2505050505050620004db565b600060208351101562000235576200022d836200024e565b905062000248565b8162000242848262000399565b5060ff90505b92915050565b600080829050601f8151111562000285578260405163305a27a960e01b81526004016200027c919062000465565b60405180910390fd5b80516200029282620004b6565b179392505050565b6001600160a01b0381168114620002b057600080fd5b50565b60008060408385031215620002c757600080fd5b8251620002d4816200029a565b6020840151909250620002e7816200029a565b809150509250929050565b634e487b7160e01b600052604160045260246000fd5b600181811c908216806200031d57607f821691505b6020821081036200033e57634e487b7160e01b600052602260045260246000fd5b50919050565b601f82111562000394576000816000526020600020601f850160051c810160208610156200036f5750805b601f850160051c820191505b8181101562000390578281556001016200037b565b5050505b505050565b81516001600160401b03811115620003b557620003b5620002f2565b620003cd81620003c6845462000308565b8462000344565b602080601f831160018114620004055760008415620003ec5750858301515b600019600386901b1c1916600185901b17855562000390565b600085815260208120601f198616915b82811015620004365788860151825594840194600190910190840162000415565b5085821015620004555787850151600019600388901b60f8161c191681555b5050505050600190811b01905550565b60006020808352835180602085015260005b81811015620004955785810183015185820160400152820162000477565b506000604082860101526040601f19601f8301168501019250505092915050565b805160208083015191908110156200033e5760001960209190910360031b1b16919050565b60805160a05160c05160e05161010051610120516101405161016051610180516101a051612bb1620005ff60003960008181610471015281816107f7015281816108c20152818161094001528181610aa401528181610b9a01528181610bf201528181610c7401528181610ce601528181610e1001528181610e8f01528181611015015281816112cd01526115ce01526000818161057a015281816109a301528181610a2601528181610b0701528181610ef201526110590152600081816106190152818161073a015281816107960152818161083f01528181610b4601528181610da7015261162101526000611960015260006119330152600061174c015260006117240152600061167f015260006116a9015260006116d30152612bb16000f3fe6080604052600436106101c65760003560e01c806384b0196e116100f7578063d03c791411610095578063ea4d3c9b11610064578063ea4d3c9b14610568578063ed8101b51461059c578063f23a6e61146105bc578063ffa1ad74146105dc57600080fd5b8063d03c791414610500578063d087d28814610520578063d691c96414610535578063e9ae5c531461055557600080fd5b8063b0d691fe116100d1578063b0d691fe1461045f578063bc197c81146104ab578063c399ec88146104cb578063cef6d209146104e057600080fd5b806384b0196e146103b4578063a3f4df7e146103dc578063acb8cc491461043257600080fd5b80633ed01015116101645780634a58db191161013e5780634a58db19146103645780635c1c6dcd1461036c5780637f07bfdc1461037f57806383ebb7711461039f57600080fd5b80633ed0101514610302578063445140b814610324578063499340471461034457600080fd5b80631626ba7e116101a05780631626ba7e1461026e57806319822f7c1461028e5780632b3afd99146102ae5780633e1b0812146102e257600080fd5b806301ffc9a7146101d257806306394d6714610207578063150b7a021461023557600080fd5b366101cd57005b600080fd5b3480156101de57600080fd5b506101f26101ed366004611fb2565b61060d565b60405190151581526020015b60405180910390f35b34801561021357600080fd5b50610227610222366004611ff5565b6106f9565b6040519081526020016101fe565b34801561024157600080fd5b506102556102503660046120fb565b61072e565b6040516001600160e01b031990911681526020016101fe565b34801561027a57600080fd5b506102556102893660046121ae565b61078a565b34801561029a57600080fd5b506102276102a93660046121f9565b6107ea565b3480156102ba57600080fd5b506102277fbc37962d8bd1d319c95199bdfda6d3f92baa8903a61b32d5f4ec1f4b36a3bc1881565b3480156102ee57600080fd5b506102276102fd366004612246565b61089b565b34801561030e57600080fd5b5061032261031d36600461226f565b610935565b005b34801561033057600080fd5b506101f261033f3660046122a9565b610a0d565b34801561035057600080fd5b5061032261035f36600461226f565b610a99565b610322610b3c565b61032261037a3660046122c2565b610be7565b34801561038b57600080fd5b5061032261039a3660046122fc565b610c69565b3480156103ab57600080fd5b50610227610d46565b3480156103c057600080fd5b506103c9610d55565b6040516101fe979695949392919061236e565b3480156103e857600080fd5b506104256040518060400160405280601981526020017f4549503737303253746174656c65737344656c654761746f720000000000000081525081565b6040516101fe9190612407565b34801561043e57600080fd5b50610425604051806040016040528060018152602001603160f81b81525081565b34801561046b57600080fd5b506104937f000000000000000000000000000000000000000000000000000000000000000081565b6040516001600160a01b0390911681526020016101fe565b3480156104b757600080fd5b506102556104c6366004612499565b610d9b565b3480156104d757600080fd5b50610227610df8565b3480156104ec57600080fd5b506103226104fb36600461258a565b610e84565b34801561050c57600080fd5b506101f261051b3660046122a9565b610f6b565b34801561052c57600080fd5b50610227610ff6565b6105486105433660046121ae565b61104c565b6040516101fe9190612623565b6103226105633660046121ae565b6112c2565b34801561057457600080fd5b506104937f000000000000000000000000000000000000000000000000000000000000000081565b3480156105a857600080fd5b506102276105b7366004611ff5565b6114d3565b3480156105c857600080fd5b506102556105d7366004612687565b611615565b3480156105e857600080fd5b50610425604051806040016040528060058152602001640312e332e360dc1b81525081565b60006001600160a01b037f000000000000000000000000000000000000000000000000000000000000000016300361065857604051634f81d01360e11b815260040160405180910390fd5b6001600160e01b031982166335a4725960e21b148061068757506001600160e01b03198216630a85bd0160e11b145b806106a257506001600160e01b03198216630271189760e51b145b806106bd57506001600160e01b031982166301ffc9a760e01b145b806106d857506001600160e01b03198216630b135d3f60e11b145b806106f357506001600160e01b03198216633992254760e01b145b92915050565b60006106f3610706611672565b61070f846114d3565b60405161190160f01b8152600281019290925260228201526042902090565b60006001600160a01b037f000000000000000000000000000000000000000000000000000000000000000016300361077957604051634f81d01360e11b815260040160405180910390fd5b50630a85bd0160e11b949350505050565b60006001600160a01b037f00000000000000000000000000000000000000000000000000000000000000001630036107d557604051634f81d01360e11b815260040160405180910390fd5b6107e084848461179d565b90505b9392505050565b6000336001600160a01b037f0000000000000000000000000000000000000000000000000000000000000000161461083557604051636b31ba1560e11b815260040160405180910390fd5b6001600160a01b037f000000000000000000000000000000000000000000000000000000000000000016300361087e57604051634f81d01360e11b815260040160405180910390fd5b6108908461088b866106f9565b611816565b90506107e38261185e565b604051631aab3f0d60e11b81523060048201526001600160c01b03821660248201526000907f00000000000000000000000000000000000000000000000000000000000000006001600160a01b0316906335567e1a90604401602060405180830381865afa158015610911573d6000803e3d6000fd5b505050506040513d601f19601f820116820180604052508101906106f391906126ef565b336001600160a01b037f0000000000000000000000000000000000000000000000000000000000000000161480159061096e5750333014155b1561098c57604051630796d94560e01b815260040160405180910390fd5b604051633ed0101560e01b81526001600160a01b037f00000000000000000000000000000000000000000000000000000000000000001690633ed01015906109d8908490600401612837565b600060405180830381600087803b1580156109f257600080fd5b505af1158015610a06573d6000803e3d6000fd5b5050505050565b6040516316a0682960e11b8152600481018290526000907f00000000000000000000000000000000000000000000000000000000000000006001600160a01b031690632d40d05290602401602060405180830381865afa158015610a75573d6000803e3d6000fd5b505050506040513d601f19601f820116820180604052508101906106f39190612908565b336001600160a01b037f00000000000000000000000000000000000000000000000000000000000000001614801590610ad25750333014155b15610af057604051630796d94560e01b815260040160405180910390fd5b604051634993404760e01b81526001600160a01b037f000000000000000000000000000000000000000000000000000000000000000016906349934047906109d8908490600401612837565b6001600160a01b037f0000000000000000000000000000000000000000000000000000000000000000163003610b8557604051634f81d01360e11b815260040160405180910390fd5b60405163b760faf960e01b81523060048201527f00000000000000000000000000000000000000000000000000000000000000006001600160a01b03169063b760faf99034906024016000604051808303818588803b1580156109f257600080fd5b336001600160a01b037f00000000000000000000000000000000000000000000000000000000000000001614801590610c205750333014155b15610c3e57604051630796d94560e01b815260040160405180910390fd5b610c65610c4e602083018361292a565b6020830135610c606040850185612947565b6118f6565b5050565b336001600160a01b037f00000000000000000000000000000000000000000000000000000000000000001614801590610ca25750333014155b15610cc057604051630796d94560e01b815260040160405180910390fd5b60405163040b850f60e31b81526001600160a01b038381166004830152602482018390527f0000000000000000000000000000000000000000000000000000000000000000169063205c287890604401600060405180830381600087803b158015610d2a57600080fd5b505af1158015610d3e573d6000803e3d6000fd5b505050505050565b6000610d50611672565b905090565b600060608060008060006060610d6961192c565b610d71611959565b60408051600080825260208201909252600f60f81b9b939a50919850469750309650945092509050565b60006001600160a01b037f0000000000000000000000000000000000000000000000000000000000000000163003610de657604051634f81d01360e11b815260040160405180910390fd5b5063bc197c8160e01b95945050505050565b6040516370a0823160e01b81523060048201526000907f00000000000000000000000000000000000000000000000000000000000000006001600160a01b0316906370a08231906024015b602060405180830381865afa158015610e60573d6000803e3d6000fd5b505050506040513d601f19601f82011682018060405250810190610d5091906126ef565b336001600160a01b037f00000000000000000000000000000000000000000000000000000000000000001614801590610ebd5750333014155b15610edb57604051630796d94560e01b815260040160405180910390fd5b60405163cef6d20960e01b81526001600160a01b037f0000000000000000000000000000000000000000000000000000000000000000169063cef6d20990610f31908990899089908990899089906004016129ee565b600060405180830381600087803b158015610f4b57600080fd5b505af1158015610f5f573d6000803e3d6000fd5b50505050505050505050565b600081600881901b603082901b605083901b610f878486611986565b80610f9b5750610f9b84600160f81b611986565b8015610fc15750610fad836000611986565b80610fc15750610fc183600160f81b611986565b8015610fd557506001600160e01b03198216155b8015610fec575069ffffffffffffffffffff198116155b9695505050505050565b604051631aab3f0d60e11b8152306004820152600060248201819052907f00000000000000000000000000000000000000000000000000000000000000006001600160a01b0316906335567e1a90604401610e43565b6060336001600160a01b037f0000000000000000000000000000000000000000000000000000000000000000161461109757604051630692ce8160e21b815260040160405180910390fd5b83600881901b6110ab82600160f81b611986565b15611131573660006110bd8787611998565b90925090506110cd836000611986565b156110e3576110dc8282611a31565b945061112a565b6110f183600160f81b611986565b15611100576110dc8282611af2565b6040516308c3ee0360e11b81526001600160f81b0319841660048201526024015b60405180910390fd5b50506112b9565b61113c826000611986565b15611294576000803660006111518989611c1f565b6040805160018082528183019092529498509296509094509250816020015b606081526020019060019003908161117057905050965060006111938682611986565b156111c7576111a4858585856118f6565b886000815181106111b7576111b7612a57565b602002602001018190525061128a565b6111d586600160f81b611986565b15611265576111e685858585611c70565b896000815181106111f9576111f9612a57565b6020908102919091010152905080611260577fe723f28f104e46b47fd3531f3608374ac226bcf3ddda334a23a266453e0efdb760008960008151811061124157611241612a57565b6020026020010151604051611257929190612a6d565b60405180910390a15b61128a565b6040516308c3ee0360e11b81526001600160f81b031987166004820152602401611121565b50505050506112b9565b604051632e5bf3f960e21b81526001600160f81b031983166004820152602401611121565b50509392505050565b336001600160a01b037f000000000000000000000000000000000000000000000000000000000000000016148015906112fb5750333014155b1561131957604051630796d94560e01b815260040160405180910390fd5b82600881901b61132d82600160f81b611986565b156113885736600061133f8686611998565b909250905061134f836000611986565b156113645761135e8282611a31565b50611381565b61137283600160f81b611986565b156111005761135e8282611af2565b5050610a06565b611393826000611986565b15611294576000803660006113a88888611c1f565b93509350935093506113be85600060f81b611986565b156113d5576113cf848484846118f6565b506114ca565b6113e385600160f81b611986565b156114a557604080516001808252818301909252600091816020015b60608152602001906001900390816113ff579050509050600061142486868686611c70565b8360008151811061143757611437612a57565b602090810291909101015290508061149e577fe723f28f104e46b47fd3531f3608374ac226bcf3ddda334a23a266453e0efdb760008360008151811061147f5761147f612a57565b6020026020010151604051611495929190612a6d565b60405180910390a15b50506114ca565b6040516308c3ee0360e11b81526001600160f81b031986166004820152602401611121565b50505050610a06565b60007fbc37962d8bd1d319c95199bdfda6d3f92baa8903a61b32d5f4ec1f4b36a3bc18611503602084018461292a565b60208401356115156040860186612947565b604051611523929190612a86565b6040519081900390206115396060870187612947565b604051611547929190612a86565b604051908190039020608087013560a088013560c089013561156c60e08b018b612947565b60405161157a929190612a86565b60408051918290038220602083019a909a526001600160a01b03988916908201526060810196909652608086019490945260a085019290925260c084015260e08301526101008201526101208101929092527f00000000000000000000000000000000000000000000000000000000000000001661014082015261016001604051602081830303815290604052805190602001209050919050565b60006001600160a01b037f000000000000000000000000000000000000000000000000000000000000000016300361166057604051634f81d01360e11b815260040160405180910390fd5b5063f23a6e6160e01b95945050505050565b6000306001600160a01b037f0000000000000000000000000000000000000000000000000000000000000000161480156116cb57507f000000000000000000000000000000000000000000000000000000000000000046145b156116f557507f000000000000000000000000000000000000000000000000000000000000000090565b610d50604080517f8b73c3c69bb8fe3d512ecc4cf759cc79239f7b179b0ffacaa9a75d522b39400f60208201527f0000000000000000000000000000000000000000000000000000000000000000918101919091527f000000000000000000000000000000000000000000000000000000000000000060608201524660808201523060a082015260009060c00160405160208183030381529060405280519060200120905090565b6000306001600160a01b03166117e98585858080601f016020809104026020016040519081016040528093929190818152602001838380828437600092019190915250611ca192505050565b6001600160a01b0316036118055750630b135d3f60e11b6107e3565b506001600160e01b03199392505050565b6000806118308361182b610100870187612947565b61179d565b90506374eca2c160e11b6001600160e01b03198216016118545760009150506106f3565b5060019392505050565b80156118f357604051600090339060001990849084818181858888f193505050503d80600081146118ab576040519150601f19603f3d011682016040523d82523d6000602084013e6118b0565b606091505b505060408051848152821515602082015291925033917fa427c7d47f24d01b170779a7600b1d4c0d7cdbabaa0f19c4f0e6182053ffc931910160405180910390a2505b50565b60405181838237600038838387895af1611913573d6000823e3d81fd5b3d8152602081013d6000823e3d01604052949350505050565b6060610d507f00000000000000000000000000000000000000000000000000000000000000006000611ccb565b6060610d507f00000000000000000000000000000000000000000000000000000000000000006001611ccb565b6001600160f81b031990811691161490565b366000833580850160208587010360208201945081359350808460051b8301118360401c17156119d05763ba597e7e6000526004601cfd5b8315611a27578392505b6001830392508260051b850135915081850160408101358082018381358201118460408501111782861782351760401c1715611a1e5763ba597e7e6000526004601cfd5b505050826119da575b5050509250929050565b606081806001600160401b03811115611a4c57611a4c612046565b604051908082528060200260200182016040528015611a7f57816020015b6060815260200190600190039081611a6a5790505b50915060005b81811015611aea5736858583818110611aa057611aa0612a57565b9050602002810190611ab29190612a96565b9050611ac4610c4e602083018361292a565b848381518110611ad657611ad6612a57565b602090810291909101015250600101611a85565b505092915050565b606081806001600160401b03811115611b0d57611b0d612046565b604051908082528060200260200182016040528015611b4057816020015b6060815260200190600190039081611b2b5790505b50915060005b81811015611aea5736858583818110611b6157611b61612a57565b9050602002810190611b739190612a96565b90506000611b9e611b87602084018461292a565b6020840135611b996040860186612947565b611c70565b868581518110611bb057611bb0612a57565b6020908102919091010152905080611c15577fe723f28f104e46b47fd3531f3608374ac226bcf3ddda334a23a266453e0efdb783868581518110611bf657611bf6612a57565b6020026020010151604051611c0c929190612a6d565b60405180910390a15b5050600101611b46565b6000803681611c316014828789612ab6565b611c3a91612ae0565b60601c9350611c4d603460148789612ab6565b611c5691612b13565b9250611c658560348189612ab6565b949793965094505050565b604051600090828482376000388483888a5af191503d8152602081013d6000823e3d81016040525094509492505050565b600080600080611cb18686611d76565b925092509250611cc18282611dc3565b5090949350505050565b606060ff8314611ce557611cde83611e7c565b90506106f3565b818054611cf190612b31565b80601f0160208091040260200160405190810160405280929190818152602001828054611d1d90612b31565b8015611d6a5780601f10611d3f57610100808354040283529160200191611d6a565b820191906000526020600020905b815481529060010190602001808311611d4d57829003601f168201915b505050505090506106f3565b60008060008351604103611db05760208401516040850151606086015160001a611da288828585611ebb565b955095509550505050611dbc565b50508151600091506002905b9250925092565b6000826003811115611dd757611dd7612b65565b03611de0575050565b6001826003811115611df457611df4612b65565b03611e125760405163f645eedf60e01b815260040160405180910390fd5b6002826003811115611e2657611e26612b65565b03611e475760405163fce698f760e01b815260048101829052602401611121565b6003826003811115611e5b57611e5b612b65565b03610c65576040516335e2f38360e21b815260048101829052602401611121565b60606000611e8983611f8a565b604080516020808252818301909252919250600091906020820181803683375050509182525060208101929092525090565b600080807f7fffffffffffffffffffffffffffffff5d576e7357a4501ddfe92f46681b20a0841115611ef65750600091506003905082611f80565b604080516000808252602082018084528a905260ff891692820192909252606081018790526080810186905260019060a0016020604051602081039080840390855afa158015611f4a573d6000803e3d6000fd5b5050604051601f1901519150506001600160a01b038116611f7657506000925060019150829050611f80565b9250600091508190505b9450945094915050565b600060ff8216601f8111156106f357604051632cd44ac360e21b815260040160405180910390fd5b600060208284031215611fc457600080fd5b81356001600160e01b0319811681146107e357600080fd5b60006101208284031215611fef57600080fd5b50919050565b60006020828403121561200757600080fd5b81356001600160401b0381111561201d57600080fd5b61202984828501611fdc565b949350505050565b6001600160a01b03811681146118f357600080fd5b634e487b7160e01b600052604160045260246000fd5b604051601f8201601f191681016001600160401b038111828210171561208457612084612046565b604052919050565b600082601f83011261209d57600080fd5b81356001600160401b038111156120b6576120b6612046565b6120c9601f8201601f191660200161205c565b8181528460208386010111156120de57600080fd5b816020850160208301376000918101602001919091529392505050565b6000806000806080858703121561211157600080fd5b843561211c81612031565b9350602085013561212c81612031565b92506040850135915060608501356001600160401b0381111561214e57600080fd5b61215a8782880161208c565b91505092959194509250565b60008083601f84011261217857600080fd5b5081356001600160401b0381111561218f57600080fd5b6020830191508360208285010111156121a757600080fd5b9250929050565b6000806000604084860312156121c357600080fd5b8335925060208401356001600160401b038111156121e057600080fd5b6121ec86828701612166565b9497909650939450505050565b60008060006060848603121561220e57600080fd5b83356001600160401b0381111561222457600080fd5b61223086828701611fdc565b9660208601359650604090950135949350505050565b60006020828403121561225857600080fd5b81356001600160c01b03811681146107e357600080fd5b60006020828403121561228157600080fd5b81356001600160401b0381111561229757600080fd5b820160c081850312156107e357600080fd5b6000602082840312156122bb57600080fd5b5035919050565b6000602082840312156122d457600080fd5b81356001600160401b038111156122ea57600080fd5b8201606081850312156107e357600080fd5b6000806040838503121561230f57600080fd5b823561231a81612031565b946020939093013593505050565b6000815180845260005b8181101561234e57602081850181015186830182015201612332565b506000602082860101526020601f19601f83011685010191505092915050565b60ff60f81b881681526000602060e0602084015261238f60e084018a612328565b83810360408501526123a1818a612328565b606085018990526001600160a01b038816608086015260a0850187905284810360c08601528551808252602080880193509091019060005b818110156123f5578351835292840192918401916001016123d9565b50909c9b505050505050505050505050565b6020815260006107e36020830184612328565b600082601f83011261242b57600080fd5b813560206001600160401b0382111561244657612446612046565b8160051b61245582820161205c565b928352848101820192828101908785111561246f57600080fd5b83870192505b8483101561248e57823582529183019190830190612475565b979650505050505050565b600080600080600060a086880312156124b157600080fd5b85356124bc81612031565b945060208601356124cc81612031565b935060408601356001600160401b03808211156124e857600080fd5b6124f489838a0161241a565b9450606088013591508082111561250a57600080fd5b61251689838a0161241a565b9350608088013591508082111561252c57600080fd5b506125398882890161208c565b9150509295509295909350565b60008083601f84011261255857600080fd5b5081356001600160401b0381111561256f57600080fd5b6020830191508360208260051b85010111156121a757600080fd5b600080600080600080606087890312156125a357600080fd5b86356001600160401b03808211156125ba57600080fd5b6125c68a838b01612546565b909850965060208901359150808211156125df57600080fd5b6125eb8a838b01612546565b9096509450604089013591508082111561260457600080fd5b5061261189828a01612546565b979a9699509497509295939492505050565b600060208083016020845280855180835260408601915060408160051b87010192506020870160005b8281101561267a57603f19888603018452612668858351612328565b9450928501929085019060010161264c565b5092979650505050505050565b600080600080600060a0868803121561269f57600080fd5b85356126aa81612031565b945060208601356126ba81612031565b9350604086013592506060860135915060808601356001600160401b038111156126e357600080fd5b6125398882890161208c565b60006020828403121561270157600080fd5b5051919050565b6000808335601e1984360301811261271f57600080fd5b83016020810192503590506001600160401b0381111561273e57600080fd5b8036038213156121a757600080fd5b81835281816020850137506000828201602090810191909152601f909101601f19169091010190565b60008383855260208086019550808560051b830101846000805b8881101561282957858403601f19018a52823536899003605e190181126127b5578283fd5b8801606081356127c481612031565b6001600160a01b031686526127db82880183612708565b82898901526127ed838901828461274d565b9250505060406127ff81840184612708565b93508783038289015261281383858361274d565b9d89019d97505050938601935050600101612790565b509198975050505050505050565b602081526000823561284881612031565b6001600160a01b039081166020848101919091528401359061286982612031565b80821660408501525050604083013560608301526060830135601e1984360301811261289457600080fd5b83016020810190356001600160401b038111156128b057600080fd5b8060051b36038213156128c257600080fd5b60c060808501526128d760e085018284612776565b915050608084013560a08401526128f160a0850185612708565b848303601f190160c0860152610fec83828461274d565b60006020828403121561291a57600080fd5b815180151581146107e357600080fd5b60006020828403121561293c57600080fd5b81356107e381612031565b6000808335601e1984360301811261295e57600080fd5b8301803591506001600160401b0382111561297857600080fd5b6020019150368190038213156121a757600080fd5b6000838385526020808601955060208560051b8301018460005b878110156129e157848303601f190189526129c28288612708565b6129cd85828461274d565b9a86019a94505050908301906001016129a7565b5090979650505050505050565b606081526000612a0260608301888a61298d565b8281036020848101919091528682528791810160005b88811015612a3457833582529282019290820190600101612a18565b508481036040860152612a4881878961298d565b9b9a5050505050505050505050565b634e487b7160e01b600052603260045260246000fd5b8281526040602082015260006107e06040830184612328565b8183823760009101908152919050565b60008235605e19833603018112612aac57600080fd5b9190910192915050565b60008085851115612ac657600080fd5b83861115612ad357600080fd5b5050820193919092039150565b6bffffffffffffffffffffffff198135818116916014851015611aea5760149490940360031b84901b1690921692915050565b803560208310156106f357600019602084900360031b1b1692915050565b600181811c90821680612b4557607f821691505b602082108103611fef57634e487b7160e01b600052602260045260246000fd5b634e487b7160e01b600052602160045260246000fdfea26469706673582212202a8fc88ef923739742bc7ec1685cd9198a7251cfb58c7e873c821a7e716b2ca664736f6c63430008170033","linkReferences":{}},"methodIdentifiers":{"DOMAIN_VERSION()":"acb8cc49","NAME()":"a3f4df7e","PACKED_USER_OP_TYPEHASH()":"2b3afd99","VERSION()":"ffa1ad74","addDeposit()":"4a58db19","delegationManager()":"ea4d3c9b","disableDelegation((address,address,bytes32,(address,bytes,bytes)[],uint256,bytes))":"49934047","eip712Domain()":"84b0196e","enableDelegation((address,address,bytes32,(address,bytes,bytes)[],uint256,bytes))":"3ed01015","entryPoint()":"b0d691fe","execute((address,uint256,bytes))":"5c1c6dcd","execute(bytes32,bytes)":"e9ae5c53","executeFromExecutor(bytes32,bytes)":"d691c964","getDeposit()":"c399ec88","getDomainHash()":"83ebb771","getNonce()":"d087d288","getNonce(uint192)":"3e1b0812","getPackedUserOperationHash((address,uint256,bytes,bytes,bytes32,uint256,bytes32,bytes,bytes))":"ed8101b5","getPackedUserOperationTypedDataHash((address,uint256,bytes,bytes,bytes32,uint256,bytes32,bytes,bytes))":"06394d67","isDelegationDisabled(bytes32)":"445140b8","isValidSignature(bytes32,bytes)":"1626ba7e","onERC1155BatchReceived(address,address,uint256[],uint256[],bytes)":"bc197c81","onERC1155Received(address,address,uint256,uint256,bytes)":"f23a6e61","onERC721Received(address,address,uint256,bytes)":"150b7a02","redeemDelegations(bytes[],bytes32[],bytes[])":"cef6d209","supportsExecutionMode(bytes32)":"d03c7914","supportsInterface(bytes4)":"01ffc9a7","validateUserOp((address,uint256,bytes,bytes,bytes32,uint256,bytes32,bytes,bytes),bytes32,uint256)":"19822f7c","withdrawDeposit(address,uint256)":"7f07bfdc"},"id":55}