{"abi":[{"type":"function","name":"afterAllHook","inputs":[{"name":"","type":"bytes","internalType":"bytes"},{"name":"","type":"bytes","internalType":"bytes"},{"name":"","type":"bytes32","internalType":"ModeCode"},{"name":"","type":"bytes","internalType":"bytes"},{"name":"","type":"bytes32","internalType":"bytes32"},{"name":"","type":"address","internalType":"address"},{"name":"","type":"address","internalType":"address"}],"outputs":[],"stateMutability":"nonpayable"},{"type":"function","name":"afterHook","inputs":[{"name":"","type":"bytes","internalType":"bytes"},{"name":"","type":"bytes","internalType":"bytes"},{"name":"","type":"bytes32","internalType":"ModeCode"},{"name":"","type":"bytes","internalType":"bytes"},{"name":"","type":"bytes32","internalType":"bytes32"},{"name":"","type":"address","internalType":"address"},{"name":"","type":"address","internalType":"address"}],"outputs":[],"stateMutability":"nonpayable"},{"type":"function","name":"beforeAllHook","inputs":[{"name":"","type":"bytes","internalType":"bytes"},{"name":"","type":"bytes","internalType":"bytes"},{"name":"","type":"bytes32","internalType":"ModeCode"},{"name":"","type":"bytes","internalType":"bytes"},{"name":"","type":"bytes32","internalType":"bytes32"},{"name":"","type":"address","internalType":"address"},{"name":"","type":"address","internalType":"address"}],"outputs":[],"stateMutability":"nonpayable"},{"type":"function","name":"beforeHook","inputs":[{"name":"_terms","type":"bytes","internalType":"bytes"},{"name":"","type":"bytes","internalType":"bytes"},{"name":"_mode","type":"bytes32","internalType":"ModeCode"},{"name":"_executionCallData","type":"bytes","internalType":"bytes"},{"name":"","type":"bytes32","internalType":"bytes32"},{"name":"","type":"address","internalType":"address"},{"name":"","type":"address","internalType":"address"}],"outputs":[],"stateMutability":"pure"},{"type":"function","name":"getTermsInfo","inputs":[{"name":"_terms","type":"bytes","internalType":"bytes"}],"outputs":[{"name":"executions_","type":"tuple[]","internalType":"struct Execution[]","components":[{"name":"target","type":"address","internalType":"address"},{"name":"value","type":"uint256","internalType":"uint256"},{"name":"callData","type":"bytes","internalType":"bytes"}]}],"stateMutability":"pure"}],"bytecode":{"object":"0x608060405234801561001057600080fd5b50610870806100206000396000f3fe608060405234801561001057600080fd5b50600436106100575760003560e01c8063414c3e331461005c578063a145832a14610078578063b99deb0e1461008b578063d3eddcc51461005c578063ed4633671461005c575b600080fd5b61007661006a3660046103e9565b50505050505050505050565b005b6100766100863660046103e9565b6100b4565b61009e6100993660046104b6565b6102cf565b6040516100ab91906104f8565b60405180910390f35b85600160f81b6001600160f81b03198216146101175760405162461bcd60e51b815260206004820181905260248201527f436176656174456e666f726365723a696e76616c69642d63616c6c2d7479706560448201526064015b60405180910390fd5b86600881901b6001600160f81b03198116156101835760405162461bcd60e51b815260206004820152602560248201527f436176656174456e666f726365723a696e76616c69642d657865637574696f6e6044820152642d7479706560d81b606482015260840161010e565b5036600061019189896102eb565b9150915060006101a18f8f6102cf565b8051909150821461020b5760405162461bcd60e51b815260206004820152602e60248201527f4578616374457865637574696f6e4261746368456e666f726365723a696e766160448201526d6c69642d62617463682d73697a6560901b606482015260840161010e565b8060405160200161021c91906104f8565b6040516020818303038152906040528051906020012083836040516020016102459291906105ba565b60405160208183030381529060405280519060200120146102be5760405162461bcd60e51b815260206004820152602d60248201527f4578616374457865637574696f6e4261746368456e666f726365723a696e766160448201526c3634b216b2bc32b1baba34b7b760991b606482015260840161010e565b505050505050505050505050505050565b60606102db83836102eb565b6102e49161071b565b9392505050565b366000833580850160208587010360208201945081359350808460051b8301118360401c17156103235763ba597e7e6000526004601cfd5b831561037a578392505b6001830392508260051b850135915081850160408101358082018381358201118460408501111782861782351760401c17156103715763ba597e7e6000526004601cfd5b5050508261032d575b5050509250929050565b60008083601f84011261039657600080fd5b50813567ffffffffffffffff8111156103ae57600080fd5b6020830191508360208285010111156103c657600080fd5b9250929050565b80356001600160a01b03811681146103e457600080fd5b919050565b60008060008060008060008060008060e08b8d03121561040857600080fd5b8a3567ffffffffffffffff8082111561042057600080fd5b61042c8e838f01610384565b909c509a5060208d013591508082111561044557600080fd5b6104518e838f01610384565b909a50985060408d0135975060608d013591508082111561047157600080fd5b5061047e8d828e01610384565b90965094505060808b0135925061049760a08c016103cd565b91506104a560c08c016103cd565b90509295989b9194979a5092959850565b600080602083850312156104c957600080fd5b823567ffffffffffffffff8111156104e057600080fd5b6104ec85828601610384565b90969095509350505050565b600060208083018184528085518083526040925060408601915060408160051b8701018488016000805b848110156105ab57898403603f19018652825180516001600160a01b0316855288810151898601528701516060888601819052815190860181905283905b8082101561057e578282018b015187830160800152908a0190610560565b8681016080908101869052988b0198601f909101601f191690960190950194505091870191600101610522565b50919998505050505050505050565b60208082528181018390526000906040808401600586901b8501820187855b8881101561069d57878303603f190184528135368b9003605e190181126105ff57600080fd5b8a0160606001600160a01b03610614836103cd565b168552878201358886015286820135601e1983360301811261063557600080fd5b90910187810191903567ffffffffffffffff81111561065357600080fd5b80360383131561066257600080fd5b8188870152808287015260809150808383880137600086820183015295880195601f01601f19169094019093019250908501906001016105d9565b509098975050505050505050565b634e487b7160e01b600052604160045260246000fd5b6040516060810167ffffffffffffffff811182821017156106e4576106e46106ab565b60405290565b604051601f8201601f1916810167ffffffffffffffff81118282101715610713576107136106ab565b604052919050565b600067ffffffffffffffff80841115610736576107366106ab565b8360051b60206107478183016106ea565b86815291850191818101903684111561075f57600080fd5b865b8481101561082e578035868111156107795760008081fd5b8801606036829003121561078d5760008081fd5b6107956106c1565b61079e826103cd565b81528582013586820152604080830135898111156107bc5760008081fd5b9290920191601f36818501126107d25760008081fd5b83358a8111156107e4576107e46106ab565b6107f5818301601f19168a016106ea565b9150808252368982870101111561080c5760008081fd5b808986018a840137600090820189015290820152845250918301918301610761565b5097965050505050505056fea26469706673582212205e0b91ba43666d3d9ebd5eb11438023697fc7df67dea03687ac126f13d8d464564736f6c63430008170033","linkReferences":{}},"methodIdentifiers":{"afterAllHook(bytes,bytes,bytes32,bytes,bytes32,address,address)":"ed463367","afterHook(bytes,bytes,bytes32,bytes,bytes32,address,address)":"d3eddcc5","beforeAllHook(bytes,bytes,bytes32,bytes,bytes32,address,address)":"414c3e33","beforeHook(bytes,bytes,bytes32,bytes,bytes32,address,address)":"a145832a","getTermsInfo(bytes)":"b99deb0e"},"id":74}