{"abi":[{"type":"constructor","inputs":[{"name":"_owner","type":"address","internalType":"address"},{"name":"_swapApiSigner","type":"address","internalType":"address"},{"name":"_delegationManager","type":"address","internalType":"contract IDelegationManager"},{"name":"_metaSwap","type":"address","internalType":"contract IMetaSwap"},{"name":"_argsEqualityCheckEnforcer","type":"address","internalType":"address"}],"stateMutability":"nonpayable"},{"type":"receive","stateMutability":"payable"},{"type":"function","name":"WHITELIST_ENFORCED","inputs":[],"outputs":[{"name":"","type":"string","internalType":"string"}],"stateMutability":"view"},{"type":"function","name":"WHITELIST_NOT_ENFORCED","inputs":[],"outputs":[{"name":"","type":"string","internalType":"string"}],"stateMutability":"view"},{"type":"function","name":"acceptOwnership","inputs":[],"outputs":[],"stateMutability":"nonpayable"},{"type":"function","name":"argsEqualityCheckEnforcer","inputs":[],"outputs":[{"name":"","type":"address","internalType":"address"}],"stateMutability":"view"},{"type":"function","name":"delegationManager","inputs":[],"outputs":[{"name":"","type":"address","internalType":"contract IDelegationManager"}],"stateMutability":"view"},{"type":"function","name":"executeFromExecutor","inputs":[{"name":"_mode","type":"bytes32","internalType":"ModeCode"},{"name":"_executionCalldata","type":"bytes","internalType":"bytes"}],"outputs":[{"name":"returnData_","type":"bytes[]","internalType":"bytes[]"}],"stateMutability":"payable"},{"type":"function","name":"isAggregatorAllowed","inputs":[{"name":"aggregatorIdHash","type":"bytes32","internalType":"bytes32"}],"outputs":[{"name":"allowed","type":"bool","internalType":"bool"}],"stateMutability":"view"},{"type":"function","name":"isTokenAllowed","inputs":[{"name":"token","type":"address","internalType":"contract IERC20"}],"outputs":[{"name":"allowed","type":"bool","internalType":"bool"}],"stateMutability":"view"},{"type":"function","name":"metaSwap","inputs":[],"outputs":[{"name":"","type":"address","internalType":"contract IMetaSwap"}],"stateMutability":"view"},{"type":"function","name":"owner","inputs":[],"outputs":[{"name":"","type":"address","internalType":"address"}],"stateMutability":"view"},{"type":"function","name":"pendingOwner","inputs":[],"outputs":[{"name":"","type":"address","internalType":"address"}],"stateMutability":"view"},{"type":"function","name":"renounceOwnership","inputs":[],"outputs":[],"stateMutability":"nonpayable"},{"type":"function","name":"setSwapApiSigner","inputs":[{"name":"_newSigner","type":"address","internalType":"address"}],"outputs":[],"stateMutability":"nonpayable"},{"type":"function","name":"swapApiSigner","inputs":[],"outputs":[{"name":"","type":"address","internalType":"address"}],"stateMutability":"view"},{"type":"function","name":"swapByDelegation","inputs":[{"name":"_signatureData","type":"tuple","internalType":"struct DelegationMetaSwapAdapter.SignatureData","components":[{"name":"apiData","type":"bytes","internalType":"bytes"},{"name":"expiration","type":"uint256","internalType":"uint256"},{"name":"signature","type":"bytes","internalType":"bytes"}]},{"name":"_delegations","type":"tuple[]","internalType":"struct Delegation[]","components":[{"name":"delegate","type":"address","internalType":"address"},{"name":"delegator","type":"address","internalType":"address"},{"name":"authority","type":"bytes32","internalType":"bytes32"},{"name":"caveats","type":"tuple[]","internalType":"struct Caveat[]","components":[{"name":"enforcer","type":"address","internalType":"address"},{"name":"terms","type":"bytes","internalType":"bytes"},{"name":"args","type":"bytes","internalType":"bytes"}]},{"name":"salt","type":"uint256","internalType":"uint256"},{"name":"signature","type":"bytes","internalType":"bytes"}]},{"name":"_useTokenWhitelist","type":"bool","internalType":"bool"}],"outputs":[],"stateMutability":"nonpayable"},{"type":"function","name":"swapTokens","inputs":[{"name":"_aggregatorId","type":"string","internalType":"string"},{"name":"_tokenFrom","type":"address","internalType":"contract IERC20"},{"name":"_tokenTo","type":"address","internalType":"contract IERC20"},{"name":"_recipient","type":"address","internalType":"address"},{"name":"_amountFrom","type":"uint256","internalType":"uint256"},{"name":"_balanceFromBefore","type":"uint256","internalType":"uint256"},{"name":"_swapData","type":"bytes","internalType":"bytes"}],"outputs":[],"stateMutability":"nonpayable"},{"type":"function","name":"transferOwnership","inputs":[{"name":"newOwner","type":"address","internalType":"address"}],"outputs":[],"stateMutability":"nonpayable"},{"type":"function","name":"updateAllowedAggregatorIds","inputs":[{"name":"_aggregatorIds","type":"string[]","internalType":"string[]"},{"name":"_statuses","type":"bool[]","internalType":"bool[]"}],"outputs":[],"stateMutability":"nonpayable"},{"type":"function","name":"updateAllowedTokens","inputs":[{"name":"_tokens","type":"address[]","internalType":"contract IERC20[]"},{"name":"_statuses","type":"bool[]","internalType":"bool[]"}],"outputs":[],"stateMutability":"nonpayable"},{"type":"function","name":"withdraw","inputs":[{"name":"_token","type":"address","internalType":"contract IERC20"},{"name":"_amount","type":"uint256","internalType":"uint256"},{"name":"_recipient","type":"address","internalType":"address"}],"outputs":[],"stateMutability":"nonpayable"},{"type":"event","name":"ChangedAggregatorIdStatus","inputs":[{"name":"aggregatorIdHash","type":"bytes32","indexed":true,"internalType":"bytes32"},{"name":"aggregatorId","type":"string","indexed":false,"internalType":"string"},{"name":"status","type":"bool","indexed":false,"internalType":"bool"}],"anonymous":false},{"type":"event","name":"ChangedTokenStatus","inputs":[{"name":"token","type":"address","indexed":false,"internalType":"contract IERC20"},{"name":"status","type":"bool","indexed":false,"internalType":"bool"}],"anonymous":false},{"type":"event","name":"OwnershipTransferStarted","inputs":[{"name":"previousOwner","type":"address","indexed":true,"internalType":"address"},{"name":"newOwner","type":"address","indexed":true,"internalType":"address"}],"anonymous":false},{"type":"event","name":"OwnershipTransferred","inputs":[{"name":"previousOwner","type":"address","indexed":true,"internalType":"address"},{"name":"newOwner","type":"address","indexed":true,"internalType":"address"}],"anonymous":false},{"type":"event","name":"SentTokens","inputs":[{"name":"token","type":"address","indexed":true,"internalType":"contract IERC20"},{"name":"recipient","type":"address","indexed":true,"internalType":"address"},{"name":"amount","type":"uint256","indexed":false,"internalType":"uint256"}],"anonymous":false},{"type":"event","name":"SetArgsEqualityCheckEnforcer","inputs":[{"name":"newArgsEqualityCheckEnforcer","type":"address","indexed":true,"internalType":"address"}],"anonymous":false},{"type":"event","name":"SetDelegationManager","inputs":[{"name":"newDelegationManager","type":"address","indexed":true,"internalType":"contract IDelegationManager"}],"anonymous":false},{"type":"event","name":"SetMetaSwap","inputs":[{"name":"newMetaSwap","type":"address","indexed":true,"internalType":"contract IMetaSwap"}],"anonymous":false},{"type":"event","name":"SwapApiSignerUpdated","inputs":[{"name":"newSigner","type":"address","indexed":true,"internalType":"address"}],"anonymous":false},{"type":"event","name":"TryExecuteUnsuccessful","inputs":[{"name":"batchExecutionindex","type":"uint256","indexed":false,"internalType":"uint256"},{"name":"result","type":"bytes","indexed":false,"internalType":"bytes"}],"anonymous":false},{"type":"error","name":"AddressEmptyCode","inputs":[{"name":"target","type":"address","internalType":"address"}]},{"type":"error","name":"AddressInsufficientBalance","inputs":[{"name":"account","type":"address","internalType":"address"}]},{"type":"error","name":"AggregatorIdIsNotAllowed","inputs":[{"name":"aggregatorId","type":"string","internalType":"string"}]},{"type":"error","name":"AmountFromMismatch","inputs":[]},{"type":"error","name":"ECDSAInvalidSignature","inputs":[]},{"type":"error","name":"ECDSAInvalidSignatureLength","inputs":[{"name":"length","type":"uint256","internalType":"uint256"}]},{"type":"error","name":"ECDSAInvalidSignatureS","inputs":[{"name":"s","type":"bytes32","internalType":"bytes32"}]},{"type":"error","name":"ExecutionFailed","inputs":[]},{"type":"error","name":"FailedInnerCall","inputs":[]},{"type":"error","name":"FailedNativeTokenTransfer","inputs":[{"name":"recipient","type":"address","internalType":"address"}]},{"type":"error","name":"InputLengthsMismatch","inputs":[]},{"type":"error","name":"InsufficientTokens","inputs":[]},{"type":"error","name":"InvalidApiSignature","inputs":[]},{"type":"error","name":"InvalidEmptyDelegations","inputs":[]},{"type":"error","name":"InvalidIdenticalTokens","inputs":[]},{"type":"error","name":"InvalidSwapFunctionSelector","inputs":[]},{"type":"error","name":"InvalidZeroAddress","inputs":[]},{"type":"error","name":"MissingArgsEqualityCheckEnforcer","inputs":[]},{"type":"error","name":"NotDelegationManager","inputs":[]},{"type":"error","name":"NotLeafDelegator","inputs":[]},{"type":"error","name":"NotSelf","inputs":[]},{"type":"error","name":"OwnableInvalidOwner","inputs":[{"name":"owner","type":"address","internalType":"address"}]},{"type":"error","name":"OwnableUnauthorizedAccount","inputs":[{"name":"account","type":"address","internalType":"address"}]},{"type":"error","name":"SafeERC20FailedOperation","inputs":[{"name":"token","type":"address","internalType":"address"}]},{"type":"error","name":"SignatureExpired","inputs":[]},{"type":"error","name":"TokenFromIsNotAllowed","inputs":[{"name":"token","type":"address","internalType":"contract IERC20"}]},{"type":"error","name":"TokenFromMismatch","inputs":[]},{"type":"error","name":"TokenToIsNotAllowed","inputs":[{"name":"token","type":"address","internalType":"contract IERC20"}]},{"type":"error","name":"UnsupportedCallType","inputs":[{"name":"callType","type":"bytes1","internalType":"CallType"}]},{"type":"error","name":"UnsupportedExecType","inputs":[{"name":"execType","type":"bytes1","internalType":"ExecType"}]}],"bytecode":{"object":"0x60e06040523480156200001157600080fd5b506040516200306738038062003067833981016040819052620000349162000258565b846001600160a01b0381166200006457604051631e4fbdf760e01b81526000600482015260240160405180910390fd5b6200006f81620001d4565b506001600160a01b03841615806200008e57506001600160a01b038316155b80620000a157506001600160a01b038216155b80620000b457506001600160a01b038116155b15620000d35760405163f6b2911f60e01b815260040160405180910390fd5b600280546001600160a01b0319166001600160a01b0386811691821790925584821660805283821660a05290821660c0526040517fdeeca532e75e413fdd750935f0d28d3686b7e2074831c42f70db2ca0dc7b32d090600090a26040516001600160a01b038416907fb2e8eb88b584ae71ef4e854c10847f4d39bd93e52599f147bfb4dcc8de52014d90600090a26040516001600160a01b038316907f5a3c783d657606d324917524307587fd272edc5e8b257da020bb6072226b6b2c90600090a26040516001600160a01b038216907fb21681281e4a8a2f3a982e391c6e8b4638d9ccd60e9fa9715dc26c7e3cd15bbe90600090a25050505050620002d8565b600180546001600160a01b0319169055620001ef81620001f2565b50565b600080546001600160a01b038381166001600160a01b0319831681178455604051919092169283917f8be0079c531659141344cd1fd0a4f28419497f9722a3daafe3b4186f6b6457e09190a35050565b6001600160a01b0381168114620001ef57600080fd5b600080600080600060a086880312156200027157600080fd5b85516200027e8162000242565b6020870151909550620002918162000242565b6040870151909450620002a48162000242565b6060870151909350620002b78162000242565b6080870151909250620002ca8162000242565b809150509295509295909350565b60805160a05160c051612d356200033260003960008181610288015261136801526000818161033201528181610f4601528181610fd601526110010152600081816103a4015281816109120152610cf30152612d356000f3fe6080604052600436106101235760003560e01c8063ab7180f7116100a0578063ea4d3c9b11610064578063ea4d3c9b14610392578063ea9c6555146103c6578063f2fde38b1461040a578063f9eaee0d1461042a578063fcdea7a91461045a57600080fd5b8063ab7180f7146102aa578063b555ddad14610300578063cb2ef5fe14610320578063d691c96414610354578063e30c39781461037457600080fd5b8063715018a6116100e7578063715018a61461020e57806379ba5097146102235780638da5cb5b1461023857806390ef4d1b14610256578063a42ff9311461027657600080fd5b8063059ba4ee1461012f578063178984911461016c5780636451b418146101ac57806367ebd8a2146101ce57806369328dec146101ee57600080fd5b3661012a57005b600080fd5b34801561013b57600080fd5b5060025461014f906001600160a01b031681565b6040516001600160a01b0390911681526020015b60405180910390f35b34801561017857600080fd5b5061019c610187366004611e85565b60046020526000908152604090205460ff1681565b6040519015158152602001610163565b3480156101b857600080fd5b506101cc6101c7366004612108565b61047a565b005b3480156101da57600080fd5b506101cc6101e9366004612281565b61098c565b3480156101fa57600080fd5b506101cc61020936600461229e565b610a05565b34801561021a57600080fd5b506101cc610a1d565b34801561022f57600080fd5b506101cc610a31565b34801561024457600080fd5b506000546001600160a01b031661014f565b34801561026257600080fd5b506101cc61027136600461232b565b610a75565b34801561028257600080fd5b5061014f7f000000000000000000000000000000000000000000000000000000000000000081565b3480156102b657600080fd5b506102f36040518060400160405280601c81526020017f546f6b656e2d57686974656c6973742d4e6f742d456e666f726365640000000081525081565b60405161016391906123e6565b34801561030c57600080fd5b506101cc61031b36600461232b565b610bcb565b34801561032c57600080fd5b5061014f7f000000000000000000000000000000000000000000000000000000000000000081565b61036761036236600461243a565b610ce6565b60405161016391906124df565b34801561038057600080fd5b506001546001600160a01b031661014f565b34801561039e57600080fd5b5061014f7f000000000000000000000000000000000000000000000000000000000000000081565b3480156103d257600080fd5b506102f360405180604001604052806018815260200177151bdad95b8b55da1a5d195b1a5cdd0b515b999bdc98d95960421b81525081565b34801561041657600080fd5b506101cc610425366004612281565b610e1f565b34801561043657600080fd5b5061019c610445366004612281565b60036020526000908152604090205460ff1681565b34801561046657600080fd5b506101cc6104753660046124f2565b610e90565b61048b610486846125b4565b6110ba565b6000808080806104a361049e898061262a565b611194565b94509450945094509450600087519050806000036104d45760405163478bfa6560e01b815260040160405180910390fd5b836001600160a01b0316856001600160a01b03160361050657604051634e570e4560e01b815260040160405180910390fd5b61051285858a8a61132c565b600460008760405160200161052791906123e6565b60408051601f198184030181529181528151602092830120835290820192909252016000205460ff16610578578560405163b55e93d160e01b815260040161056f91906123e6565b60405180910390fd5b336001600160a01b03168860008151811061059557610595612670565b6020026020010151602001516001600160a01b0316146105c85760405163a711bbaf60e01b815260040160405180910390fd5b60003063fcdea7a98888888d6105df60018961269c565b815181106105ef576105ef612670565b602002602001015160200151896106058d6115b4565b8a60405160240161061c97969594939291906126af565b60408051601f19818403018152918152602080830180516001600160e01b031660e09590951b94909417909352805160028082526060820190925291945060009350909182015b60608152602001906001900390816106635790505090508960405160200161068b919061270f565b604051602081830303815290604052816000815181106106ad576106ad612670565b6020908102919091010152600060405190808252806020026020018201604052801561073957816020015b6107266040518060c0016040528060006001600160a01b0316815260200160006001600160a01b03168152602001600080191681526020016060815260200160008152602001606081525090565b8152602001906001900390816106d85790505b5060405160200161074a919061270f565b6040516020818303038152906040528160018151811061076c5761076c612670565b6020908102919091010152604080516002808252606082019092526000918160200160208202803683370190505090506107a4611639565b816000815181106107b7576107b7612670565b6020026020010181815250506107cb611639565b816001815181106107de576107de612670565b602090810291909101015260408051600280825260608201909252600091816020015b60608152602001906001900390816108015790505090506001600160a01b0389166108635761084030886040518060200160405280600081525061164c565b8160008151811061085357610853612670565b60200260200101819052506108d1565b6040513060248201526044810188905260009060640160408051601f198184030181529190526020810180516001600160e01b031663a9059cbb60e01b17905290506108b18a60008361164c565b826000815181106108c4576108c4612670565b6020026020010181905250505b6108dd3060008661164c565b816001815181106108f0576108f0612670565b602090810291909101015260405163cef6d20960e01b81526001600160a01b037f0000000000000000000000000000000000000000000000000000000000000000169063cef6d2099061094b90869086908690600401612841565b600060405180830381600087803b15801561096557600080fd5b505af1158015610979573d6000803e3d6000fd5b5050505050505050505050505050505050565b61099461167b565b6001600160a01b0381166109bb5760405163f6b2911f60e01b815260040160405180910390fd5b600280546001600160a01b0319166001600160a01b0383169081179091556040517fdeeca532e75e413fdd750935f0d28d3686b7e2074831c42f70db2ca0dc7b32d090600090a250565b610a0d61167b565b610a188383836116a8565b505050565b610a2561167b565b610a2f60006117a1565b565b60015433906001600160a01b03168114610a695760405163118cdaa760e01b81526001600160a01b038216600482015260240161056f565b610a72816117a1565b50565b610a7d61167b565b82818114610a9e57604051637e26301b60e11b815260040160405180910390fd5b60005b81811015610bc3576000868683818110610abd57610abd612670565b9050602002810190610acf919061262a565b604051602001610ae09291906128d4565b6040516020818303038152906040528051906020012090506000858584818110610b0c57610b0c612670565b9050602002016020810190610b2191906128f0565b60008381526004602052604090205490915060ff16151581151514610bb9576000828152600460205260409020805460ff1916821515179055817ffe89a7e0da76ce9087f67dbe71c999de74699125edabbdd3ef09b42dafdf9e55898986818110610b8e57610b8e612670565b9050602002810190610ba0919061262a565b84604051610bb09392919061290d565b60405180910390a25b5050600101610aa1565b505050505050565b610bd361167b565b82818114610bf457604051637e26301b60e11b815260040160405180910390fd5b60005b81811015610bc3576000868683818110610c1357610c13612670565b9050602002016020810190610c289190612281565b90506000858584818110610c3e57610c3e612670565b9050602002016020810190610c5391906128f0565b6001600160a01b03831660009081526003602052604090205490915060ff16151581151514610cdc576001600160a01b038216600081815260036020908152604091829020805460ff19168515159081179091558251938452908301527fd0847c60d8132f1d2a3af347506243fa046f163a2c9c6698c43b31e1d7d95bc4910160405180910390a15b5050600101610bf7565b6060336001600160a01b037f00000000000000000000000000000000000000000000000000000000000000001614610d3157604051630692ce8160e21b815260040160405180910390fd5b83600881901b6001600160f81b0319821615610d6c57604051632e5bf3f960e21b81526001600160f81b03198316600482015260240161056f565b6001600160f81b0319811615610da1576040516308c3ee0360e11b81526001600160f81b03198216600482015260240161056f565b600080366000610db189896117ba565b6040805160018082528183019092529498509296509094509250816020015b6060815260200190600190039081610dd0579050509650610df38484848461180b565b87600081518110610e0657610e06612670565b60200260200101819052505050505050505b9392505050565b610e2761167b565b600180546001600160a01b0383166001600160a01b03199091168117909155610e586000546001600160a01b031690565b6001600160a01b03167f38d16b8cac22d99fc7c124b9cd0de2d3fa1faef420bfe791d8c362d765e2270060405160405180910390a350565b333014610eb0576040516314e1dbf760e11b815260040160405180910390fd5b600083610ebc896115b4565b610ec6919061269c565b905084811015610ee9576040516378dbf0af60e11b815260040160405180910390fd5b84811115610f0557610f0588610eff878461269c565b886116a8565b6000610f10886115b4565b905060006001600160a01b038a16610f29575085610fff565b604051636eb1769f60e11b81523060048201526001600160a01b037f000000000000000000000000000000000000000000000000000000000000000081166024830152600091908c169063dd62ed3e90604401602060405180830381865afa158015610f99573d6000803e3d6000fd5b505050506040513d601f19601f82011682018060405250810190610fbd9190612933565b905087811015610ffd57610ffd6001600160a01b038c167f0000000000000000000000000000000000000000000000000000000000000000600019611841565b505b7f00000000000000000000000000000000000000000000000000000000000000006001600160a01b0316635f575529828e8e8e8c8b8b6040518863ffffffff1660e01b81526004016110569695949392919061294c565b6000604051808303818588803b15801561106f57600080fd5b505af1158015611083573d6000803e3d6000fd5b50505050506000826110948b6115b4565b61109e919061269c565b90506110ab8a828b6116a8565b50505050505050505050505050565b806020015142106110de57604051630819bdcd60e01b815260040160405180910390fd5b6000816000015182602001516040516020016110fb929190612996565b604051602081830303815290604052805190602001209050600061114c827f19457468657265756d205369676e6564204d6573736167653a0a3332000000006000908152601c91909152603c902090565b9050600061115e8285604001516118cb565b6002549091506001600160a01b0380831691161461118e57604051626d46e960e31b815260040160405180910390fd5b50505050565b60606000808083816111a9600482898b6129b8565b6111b2916129e2565b90506001600160e01b03198116635f57552960e01b146111e557604051632033702760e11b815260040160405180910390fd5b60006111f4886004818c6129b8565b8080601f0160208091040260200160405190810160405280939291908181526020018383808284376000920191909152505082519293506112419284016020908101925084019050612a62565b60408051600060208201819052959c50939a50919750955082918291829182910160408051601f1981840301815290829052611281918a90602001612af9565b6040516020818303038152906040528060200190518101906112a39190612b28565b98505097505050955095509550508a6001600160a01b0316856001600160a01b0316146112e3576040516356cf902d60e01b815260040160405180910390fd5b801580156112fa5750886112f78484612be6565b14155b1561131857604051632f0e599760e11b815260040160405180910390fd5b839950505050505050509295509295909350565b60006001835161133c919061269c565b905082818151811061135057611350612670565b60200260200101516060015151600014806113d857507f00000000000000000000000000000000000000000000000000000000000000006001600160a01b03168382815181106113a2576113a2612670565b6020026020010151606001516000815181106113c0576113c0612670565b6020026020010151600001516001600160a01b031614155b156113f65760405163113f78d160e31b815260040160405180910390fd5b8115611518576001600160a01b03851660009081526003602052604090205460ff166114405760405163550a4b9360e01b81526001600160a01b038616600482015260240161056f565b6001600160a01b03841660009081526003602052604090205460ff166114845760405163022330e760e61b81526001600160a01b038516600482015260240161056f565b60405180604001604052806018815260200177151bdad95b8b55da1a5d195b1a5cdd0b515b999bdc98d95960421b8152506040516020016114c591906123e6565b6040516020818303038152906040528382815181106114e6576114e6612670565b60200260200101516060015160008151811061150457611504612670565b6020026020010151604001819052506115ad565b6040518060400160405280601c81526020017f546f6b656e2d57686974656c6973742d4e6f742d456e666f726365640000000081525060405160200161155e91906123e6565b60405160208183030381529060405283828151811061157f5761157f612670565b60200260200101516060015160008151811061159d5761159d612670565b6020026020010151604001819052505b5050505050565b60006001600160a01b0382166115cb575047919050565b6040516370a0823160e01b81523060048201526001600160a01b038316906370a0823190602401602060405180830381865afa15801561160f573d6000803e3d6000fd5b505050506040513d601f19601f820116820180604052508101906116339190612933565b92915050565b6000611647818080806118f5565b905090565b606083838360405160200161166393929190612bf9565b60405160208183030381529060405290509392505050565b6000546001600160a01b03163314610a2f5760405163118cdaa760e01b815233600482015260240161056f565b6001600160a01b03831661173b576000816001600160a01b03168360405160006040518083038185875af1925050503d8060008114611703576040519150601f19603f3d011682016040523d82523d6000602084013e611708565b606091505b5050905080611735576040516312988bef60e21b81526001600160a01b038316600482015260240161056f565b5061174f565b61174f6001600160a01b0384168284611960565b806001600160a01b0316836001600160a01b03167f2c42af0ac449800f98313b961b8c9e7d69c3065be5b86449ed4c358e01d3a7808460405161179491815260200190565b60405180910390a3505050565b600180546001600160a01b0319169055610a72816119bf565b60008036816117cc60148287896129b8565b6117d591612c38565b60601c93506117e86034601487896129b8565b6117f191612c6b565b925061180085603481896129b8565b949793965094505050565b60405181838237600038838387895af1611828573d6000823e3d81fd5b3d8152602081013d6000823e3d01604052949350505050565b604051636eb1769f60e11b81523060048201526001600160a01b0383811660248301526000919085169063dd62ed3e90604401602060405180830381865afa158015611891573d6000803e3d6000fd5b505050506040513d601f19601f820116820180604052508101906118b59190612933565b905061118e84846118c68585612be6565b611a0f565b6000806000806118db8686611a9f565b9250925092506118eb8282611aec565b5090949350505050565b604080516001600160f81b03198087166020830152851660218201526000602282018190526001600160e01b03198516602683015269ffffffffffffffffffff198416602a830152910160405160208183030381529060405261195790612c89565b95945050505050565b6040516001600160a01b03838116602483015260448201839052610a1891859182169063a9059cbb906064015b604051602081830303815290604052915060e01b6020820180516001600160e01b038381831617835250505050611ba9565b600080546001600160a01b038381166001600160a01b0319831681178455604051919092169283917f8be0079c531659141344cd1fd0a4f28419497f9722a3daafe3b4186f6b6457e09190a35050565b604080516001600160a01b038416602482015260448082018490528251808303909101815260649091019091526020810180516001600160e01b031663095ea7b360e01b179052611a608482611c0c565b61118e576040516001600160a01b03848116602483015260006044830152611a9591869182169063095ea7b39060640161198d565b61118e8482611ba9565b60008060008351604103611ad95760208401516040850151606086015160001a611acb88828585611caf565b955095509550505050611ae5565b50508151600091506002905b9250925092565b6000826003811115611b0057611b00612cb0565b03611b09575050565b6001826003811115611b1d57611b1d612cb0565b03611b3b5760405163f645eedf60e01b815260040160405180910390fd5b6002826003811115611b4f57611b4f612cb0565b03611b705760405163fce698f760e01b81526004810182905260240161056f565b6003826003811115611b8457611b84612cb0565b03611ba5576040516335e2f38360e21b81526004810182905260240161056f565b5050565b6000611bbe6001600160a01b03841683611d7e565b90508051600014158015611be3575080806020019051810190611be19190612cc6565b155b15610a1857604051635274afe760e01b81526001600160a01b038416600482015260240161056f565b6000806000846001600160a01b031684604051611c299190612ce3565b6000604051808303816000865af19150503d8060008114611c66576040519150601f19603f3d011682016040523d82523d6000602084013e611c6b565b606091505b5091509150818015611c95575080511580611c95575080806020019051810190611c959190612cc6565b80156119575750505050506001600160a01b03163b151590565b600080807f7fffffffffffffffffffffffffffffff5d576e7357a4501ddfe92f46681b20a0841115611cea5750600091506003905082611d74565b604080516000808252602082018084528a905260ff891692820192909252606081018790526080810186905260019060a0016020604051602081039080840390855afa158015611d3e573d6000803e3d6000fd5b5050604051601f1901519150506001600160a01b038116611d6a57506000925060019150829050611d74565b9250600091508190505b9450945094915050565b6060610e188383600084600080856001600160a01b03168486604051611da49190612ce3565b60006040518083038185875af1925050503d8060008114611de1576040519150601f19603f3d011682016040523d82523d6000602084013e611de6565b606091505b5091509150611df6868383611e00565b9695505050505050565b606082611e1557611e1082611e5c565b610e18565b8151158015611e2c57506001600160a01b0384163b155b15611e5557604051639996b31560e01b81526001600160a01b038516600482015260240161056f565b5080610e18565b805115611e6c5780518082602001fd5b604051630a12f52160e11b815260040160405180910390fd5b600060208284031215611e9757600080fd5b5035919050565b634e487b7160e01b600052604160045260246000fd5b604051606081016001600160401b0381118282101715611ed657611ed6611e9e565b60405290565b60405160c081016001600160401b0381118282101715611ed657611ed6611e9e565b604051601f8201601f191681016001600160401b0381118282101715611f2657611f26611e9e565b604052919050565b60006001600160401b03821115611f4757611f47611e9e565b5060051b60200190565b6001600160a01b0381168114610a7257600080fd5b8035611f7181611f51565b919050565b60006001600160401b03821115611f8f57611f8f611e9e565b50601f01601f191660200190565b600082601f830112611fae57600080fd5b8135611fc1611fbc82611f76565b611efe565b818152846020838601011115611fd657600080fd5b816020850160208301376000918101602001919091529392505050565b600082601f83011261200457600080fd5b81356020612014611fbc83611f2e565b82815260059290921b8401810191818101908684111561203357600080fd5b8286015b848110156120e45780356001600160401b03808211156120575760008081fd5b908801906060828b03601f19018113156120715760008081fd5b612079611eb4565b8784013561208681611f51565b81526040848101358481111561209c5760008081fd5b6120aa8e8b83890101611f9d565b838b0152509184013591838311156120c25760008081fd5b6120d08d8a85880101611f9d565b908201528652505050918301918301612037565b509695505050505050565b8015158114610a7257600080fd5b8035611f71816120ef565b60008060006060848603121561211d57600080fd5b83356001600160401b038082111561213457600080fd5b908501906060828803121561214857600080fd5b909350602090858201358181111561215f57600080fd5b8601601f8101881361217057600080fd5b803561217e611fbc82611f2e565b81815260059190911b8201840190848101908a83111561219d57600080fd5b8584015b83811015612262578035868111156121b857600080fd5b850160c0818e03601f190112156121ce57600080fd5b6121d6611edc565b6121e1898301611f66565b81526121ef60408301611f66565b898201526060820135604082015260808201358881111561220f57600080fd5b61221d8f8b83860101611ff3565b60608301525060a0820135608082015260c0820135888111156122405760008081fd5b61224e8f8b83860101611f9d565b60a0830152508452509186019186016121a1565b50809750505050505050612278604085016120fd565b90509250925092565b60006020828403121561229357600080fd5b8135610e1881611f51565b6000806000606084860312156122b357600080fd5b83356122be81611f51565b92506020840135915060408401356122d581611f51565b809150509250925092565b60008083601f8401126122f257600080fd5b5081356001600160401b0381111561230957600080fd5b6020830191508360208260051b850101111561232457600080fd5b9250929050565b6000806000806040858703121561234157600080fd5b84356001600160401b038082111561235857600080fd5b612364888389016122e0565b9096509450602087013591508082111561237d57600080fd5b5061238a878288016122e0565b95989497509550505050565b60005b838110156123b1578181015183820152602001612399565b50506000910152565b600081518084526123d2816020860160208601612396565b601f01601f19169290920160200192915050565b602081526000610e1860208301846123ba565b60008083601f84011261240b57600080fd5b5081356001600160401b0381111561242257600080fd5b60208301915083602082850101111561232457600080fd5b60008060006040848603121561244f57600080fd5b8335925060208401356001600160401b0381111561246c57600080fd5b612478868287016123f9565b9497909650939450505050565b60008282518085526020808601955060208260051b8401016020860160005b848110156124d257601f198684030189526124c08383516123ba565b988401989250908301906001016124a4565b5090979650505050505050565b602081526000610e186020830184612485565b600080600080600080600080600060e08a8c03121561251057600080fd5b89356001600160401b038082111561252757600080fd5b6125338d838e016123f9565b909b50995060208c0135915061254882611f51565b90975060408b01359061255a82611f51565b90965060608b01359061256c82611f51565b90955060808b0135945060a08b0135935060c08b0135908082111561259057600080fd5b5061259d8c828d016123f9565b915080935050809150509295985092959850929598565b6000606082360312156125c657600080fd5b6125ce611eb4565b82356001600160401b03808211156125e557600080fd5b6125f136838701611f9d565b835260208501356020840152604085013591508082111561261157600080fd5b5061261e36828601611f9d565b60408301525092915050565b6000808335601e1984360301811261264157600080fd5b8301803591506001600160401b0382111561265b57600080fd5b60200191503681900382131561232457600080fd5b634e487b7160e01b600052603260045260246000fd5b634e487b7160e01b600052601160045260246000fd5b8181038181111561163357611633612686565b60e0815260006126c260e083018a6123ba565b6001600160a01b0389811660208501528881166040850152871660608401526080830186905260a0830185905282810360c084015261270181856123ba565b9a9950505050505050505050565b6000602080830181845280855180835260408601915060408160051b870101925083870160005b8281101561283457603f19888603018452815160c0860160018060a01b038083511688528089840151168989015260408301516040890152606083015160c060608a015282815180855260e08b01915060e08160051b8c010194508b8301925060005b818110156127f85760df198c870301835283518581511687528d81015160608f8901526127c960608901826123ba565b90506040820151915087810360408901526127e481836123ba565b97505050928c0192918c0191600101612799565b50505050506080820151608088015260a0820151915086810360a088015261282081836123ba565b965050509285019290850190600101612736565b5092979650505050505050565b6060815260006128546060830186612485565b82810360208481019190915285518083528682019282019060005b8181101561288b5784518352938301939183019160010161286f565b5050848103604086015261289f8187612485565b98975050505050505050565b81835281816020850137506000828201602090810191909152601f909101601f19169091010190565b6020815260006128e86020830184866128ab565b949350505050565b60006020828403121561290257600080fd5b8135610e18816120ef565b6040815260006129216040830185876128ab565b90508215156020830152949350505050565b60006020828403121561294557600080fd5b5051919050565b60808152600061296060808301888a6128ab565b6001600160a01b03871660208401526040830186905282810360608401526129898185876128ab565b9998505050505050505050565b6040815260006129a960408301856123ba565b90508260208301529392505050565b600080858511156129c857600080fd5b838611156129d557600080fd5b5050820193919092039150565b6001600160e01b03198135818116916004851015612a0a5780818660040360031b1b83161692505b505092915050565b6000612a20611fbc84611f76565b9050828152838383011115612a3457600080fd5b610e18836020830184612396565b600082601f830112612a5357600080fd5b610e1883835160208501612a12565b60008060008060808587031215612a7857600080fd5b84516001600160401b0380821115612a8f57600080fd5b818701915087601f830112612aa357600080fd5b612ab288835160208501612a12565b955060208701519150612ac482611f51565b60408701516060880151929550935080821115612ae057600080fd5b50612aed87828801612a42565b91505092959194509250565b60008351612b0b818460208801612396565b835190830190612b1f818360208801612396565b01949350505050565b60008060008060008060008060006101208a8c031215612b4757600080fd5b8951612b5281611f51565b60208b0151909950612b6381611f51565b60408b0151909850612b7481611f51565b8097505060608a0151955060808a0151945060a08a01516001600160401b03811115612b9f57600080fd5b612bab8c828d01612a42565b94505060c08a0151925060e08a0151612bc381611f51565b6101008b0151909250612bd5816120ef565b809150509295985092959850929598565b8082018082111561163357611633612686565b6bffffffffffffffffffffffff198460601b16815282601482015260008251612c29816034850160208701612396565b91909101603401949350505050565b6bffffffffffffffffffffffff198135818116916014851015612a0a5760149490940360031b84901b1690921692915050565b8035602083101561163357600019602084900360031b1b1692915050565b80516020808301519190811015612caa576000198160200360031b1b821691505b50919050565b634e487b7160e01b600052602160045260246000fd5b600060208284031215612cd857600080fd5b8151610e18816120ef565b60008251612cf5818460208701612396565b919091019291505056fea2646970667358221220e6349ea62bd7b0c0d8eed7da3947908c16ca3383370cc10da3a8b2b40c83b05264736f6c63430008170033","linkReferences":{}},"methodIdentifiers":{"WHITELIST_ENFORCED()":"ea9c6555","WHITELIST_NOT_ENFORCED()":"ab7180f7","acceptOwnership()":"79ba5097","argsEqualityCheckEnforcer()":"a42ff931","delegationManager()":"ea4d3c9b","executeFromExecutor(bytes32,bytes)":"d691c964","isAggregatorAllowed(bytes32)":"17898491","isTokenAllowed(address)":"f9eaee0d","metaSwap()":"cb2ef5fe","owner()":"8da5cb5b","pendingOwner()":"e30c3978","renounceOwnership()":"715018a6","setSwapApiSigner(address)":"67ebd8a2","swapApiSigner()":"059ba4ee","swapByDelegation((bytes,uint256,bytes),(address,address,bytes32,(address,bytes,bytes)[],uint256,bytes)[],bool)":"6451b418","swapTokens(string,address,address,address,uint256,uint256,bytes)":"fcdea7a9","transferOwnership(address)":"f2fde38b","updateAllowedAggregatorIds(string[],bool[])":"90ef4d1b","updateAllowedTokens(address[],bool[])":"b555ddad","withdraw(address,uint256,address)":"69328dec"},"id":91}