{"abi":[{"type":"constructor","inputs":[{"name":"_delegationManager","type":"address","internalType":"contract IDelegationManager"}],"stateMutability":"nonpayable"},{"type":"function","name":"afterAllHook","inputs":[{"name":"_terms","type":"bytes","internalType":"bytes"},{"name":"_args","type":"bytes","internalType":"bytes"},{"name":"_mode","type":"bytes32","internalType":"ModeCode"},{"name":"_executionCallData","type":"bytes","internalType":"bytes"},{"name":"_delegationHash","type":"bytes32","internalType":"bytes32"},{"name":"_delegator","type":"address","internalType":"address"},{"name":"_redeemer","type":"address","internalType":"address"}],"outputs":[],"stateMutability":"nonpayable"},{"type":"function","name":"afterHook","inputs":[{"name":"_terms","type":"bytes","internalType":"bytes"},{"name":"_args","type":"bytes","internalType":"bytes"},{"name":"_mode","type":"bytes32","internalType":"ModeCode"},{"name":"_executionCallData","type":"bytes","internalType":"bytes"},{"name":"_delegationHash","type":"bytes32","internalType":"bytes32"},{"name":"_delegator","type":"address","internalType":"address"},{"name":"_redeemer","type":"address","internalType":"address"}],"outputs":[],"stateMutability":"nonpayable"},{"type":"function","name":"beforeAllHook","inputs":[{"name":"_terms","type":"bytes","internalType":"bytes"},{"name":"_args","type":"bytes","internalType":"bytes"},{"name":"_mode","type":"bytes32","internalType":"ModeCode"},{"name":"_executionCallData","type":"bytes","internalType":"bytes"},{"name":"_delegationHash","type":"bytes32","internalType":"bytes32"},{"name":"_delegator","type":"address","internalType":"address"},{"name":"_redeemer","type":"address","internalType":"address"}],"outputs":[],"stateMutability":"nonpayable"},{"type":"function","name":"beforeHook","inputs":[{"name":"_terms","type":"bytes","internalType":"bytes"},{"name":"_args","type":"bytes","internalType":"bytes"},{"name":"_mode","type":"bytes32","internalType":"ModeCode"},{"name":"_executionCallData","type":"bytes","internalType":"bytes"},{"name":"_delegationHash","type":"bytes32","internalType":"bytes32"},{"name":"_delegator","type":"address","internalType":"address"},{"name":"_redeemer","type":"address","internalType":"address"}],"outputs":[],"stateMutability":"nonpayable"},{"type":"function","name":"delegationManager","inputs":[],"outputs":[{"name":"","type":"address","internalType":"contract IDelegationManager"}],"stateMutability":"view"},{"type":"error","name":"AddressEmptyCode","inputs":[{"name":"target","type":"address","internalType":"address"}]},{"type":"error","name":"AddressInsufficientBalance","inputs":[{"name":"account","type":"address","internalType":"address"}]},{"type":"error","name":"FailedInnerCall","inputs":[]}],"bytecode":{"object":"0x60a060405234801561001057600080fd5b50604051610fa1380380610fa183398101604081905261002f91610040565b6001600160a01b0316608052610070565b60006020828403121561005257600080fd5b81516001600160a01b038116811461006957600080fd5b9392505050565b608051610efc6100a560003960008181609c0152818160f8015281816102010152818161030201526103f60152610efc6000f3fe608060405234801561001057600080fd5b50600436106100575760003560e01c8063414c3e331461005c578063a145832a14610071578063d3eddcc514610084578063ea4d3c9b14610097578063ed463367146100da575b600080fd5b61006f61006a36600461084c565b6100ed565b005b61006f61007f36600461084c565b6101c7565b61006f61009236600461084c565b6102c8565b6100be7f000000000000000000000000000000000000000000000000000000000000000081565b6040516001600160a01b03909116815260200160405180910390f35b61006f6100e836600461084c565b6103bc565b336001600160a01b037f0000000000000000000000000000000000000000000000000000000000000000161461013e5760405162461bcd60e51b815260040161013590610918565b60405180910390fd5b6101bb8a8a8a8a6040518060a001604052808c81526020018b8b8080601f016020809104026020016040519081016040528093929190818152602001838380828437600092019190915250505090825250602081018a90526001600160a01b03808a166040830152881660609091015263414c3e3360e01b6104ac565b50505050505050505050565b85600881901b6001600160f81b03198116156101f55760405162461bcd60e51b815260040161013590610968565b50336001600160a01b037f0000000000000000000000000000000000000000000000000000000000000000161461023e5760405162461bcd60e51b815260040161013590610918565b6102bb8b8b8b8b6040518060a001604052808d81526020018c8c8080601f016020809104026020016040519081016040528093929190818152602001838380828437600092019190915250505090825250602081018b90526001600160a01b03808b16604083015289166060909101526350a2c19560e11b6104ac565b5050505050505050505050565b85600881901b6001600160f81b03198116156102f65760405162461bcd60e51b815260040161013590610968565b50336001600160a01b037f0000000000000000000000000000000000000000000000000000000000000000161461033f5760405162461bcd60e51b815260040161013590610918565b6102bb8b8b8b8b6040518060a001604052808d81526020018c8c8080601f016020809104026020016040519081016040528093929190818152602001838380828437600092019190915250505090825250602081018b90526001600160a01b03808b166040830152891660609091015263d3eddcc560e01b6104ac565b85600881901b6001600160f81b03198116156103ea5760405162461bcd60e51b815260040161013590610968565b50336001600160a01b037f000000000000000000000000000000000000000000000000000000000000000016146104335760405162461bcd60e51b815260040161013590610918565b6102bb8b8b8b8b6040518060a001604052808d81526020018c8c8080601f016020809104026020016040519081016040528093929190818152602001838380828437600092019190915250505090825250602081018b90526001600160a01b03808b166040830152891660609091015263ed46336760e01b5b60006104ba86880188610af1565b905060006104ca85870187610cf3565b905081518160000151106105355760405162461bcd60e51b815260206004820152602c60248201527f4c6f676963616c4f7257726170706572456e666f726365723a696e76616c696460448201526b05acee4deeae05ad2dcc8caf60a31b6064820152608401610135565b60008282600001518151811061054d5761054d610ddb565b602002602001015190506000816000015151905080836020015151146105d15760405162461bcd60e51b815260206004820152603360248201527f4c6f676963616c4f7257726170706572456e666f726365723a696e76616c696460448201527205ac6c2eccac2e85ac2e4cee65ad8cadccee8d606b1b6064820152608401610135565b60005b818110156102bb576106a8836000015182815181106105f5576105f5610ddb565b602002602001015160000151878560000151848151811061061857610618610ddb565b6020026020010151602001518760200151858151811061063a5761063a610ddb565b60200260200101518b600001518c602001518d604001518e606001518f608001516040516024016106719796959493929190610e41565b60408051601f198184030181529190526020810180516001600160e01b03166001600160e01b0319909316929092179091526106b1565b506001016105d4565b60606106bf838360006106c6565b9392505050565b6060814710156106eb5760405163cd78605960e01b8152306004820152602401610135565b600080856001600160a01b031684866040516107079190610eaa565b60006040518083038185875af1925050503d8060008114610744576040519150601f19603f3d011682016040523d82523d6000602084013e610749565b606091505b5091509150610759868383610763565b9695505050505050565b60608261077857610773826107bf565b6106bf565b815115801561078f57506001600160a01b0384163b155b156107b857604051639996b31560e01b81526001600160a01b0385166004820152602401610135565b50806106bf565b8051156107cf5780518082602001fd5b604051630a12f52160e11b815260040160405180910390fd5b60008083601f8401126107fa57600080fd5b5081356001600160401b0381111561081157600080fd5b60208301915083602082850101111561082957600080fd5b9250929050565b80356001600160a01b038116811461084757600080fd5b919050565b60008060008060008060008060008060e08b8d03121561086b57600080fd5b8a356001600160401b038082111561088257600080fd5b61088e8e838f016107e8565b909c509a5060208d01359150808211156108a757600080fd5b6108b38e838f016107e8565b909a50985060408d0135975060608d01359150808211156108d357600080fd5b506108e08d828e016107e8565b90965094505060808b013592506108f960a08c01610830565b915061090760c08c01610830565b90509295989b9194979a5092959850565b60208082526030908201527f4c6f676963616c4f7257726170706572456e666f726365723a6f6e6c792d646560408201526f3632b3b0ba34b7b716b6b0b730b3b2b960811b606082015260800190565b60208082526025908201527f436176656174456e666f726365723a696e76616c69642d657865637574696f6e6040820152642d7479706560d81b606082015260800190565b634e487b7160e01b600052604160045260246000fd5b604051602081016001600160401b03811182821017156109e5576109e56109ad565b60405290565b604051606081016001600160401b03811182821017156109e5576109e56109ad565b604080519081016001600160401b03811182821017156109e5576109e56109ad565b604051601f8201601f191681016001600160401b0381118282101715610a5757610a576109ad565b604052919050565b60006001600160401b03821115610a7857610a786109ad565b5060051b60200190565b600082601f830112610a9357600080fd5b81356001600160401b03811115610aac57610aac6109ad565b610abf601f8201601f1916602001610a2f565b818152846020838601011115610ad457600080fd5b816020850160208301376000918101602001919091529392505050565b600060208284031215610b0357600080fd5b6001600160401b0382351115610b1857600080fd5b8135820183601f820112610b2b57600080fd5b610b3d610b388235610a5f565b610a2f565b81358082526020808301929160051b840101861015610b5b57600080fd5b602083015b6020843560051b850101811015610ce9576001600160401b0381351115610b8657600080fd5b6020813585018803601f19011215610b9d57600080fd5b610ba56109c3565b6001600160401b0360208335870101351115610bc057600080fd5b81358501602081013501603f81018913610bd957600080fd5b610be9610b386020830135610a5f565b602082810135808352908201919060051b83016040018b1015610c0b57600080fd5b604083015b6040602085013560051b850101811015610cd6576001600160401b0381351115610c3957600080fd5b803584016060818e03603f19011215610c5157600080fd5b610c596109eb565b610c6560408301610830565b81526001600160401b0360608301351115610c7f57600080fd5b610c928e60406060850135850101610a82565b60208201526001600160401b0360808301351115610caf57600080fd5b610cc28e60406080850135850101610a82565b604082015284525060209283019201610c10565b5083525050835260209283019201610b60565b5095945050505050565b60006020808385031215610d0657600080fd5b82356001600160401b0380821115610d1d57600080fd5b9084019060408287031215610d3157600080fd5b610d39610a0d565b823581528383013582811115610d4e57600080fd5b80840193505086601f840112610d6357600080fd5b8235610d71610b3882610a5f565b81815260059190911b84018501908581019089831115610d9057600080fd5b8686015b83811015610dc857803586811115610dac5760008081fd5b610dba8c8a838b0101610a82565b845250918701918701610d94565b5095830195909552509695505050505050565b634e487b7160e01b600052603260045260246000fd5b60005b83811015610e0c578181015183820152602001610df4565b50506000910152565b60008151808452610e2d816020860160208601610df1565b601f01601f19169290920160200192915050565b60e081526000610e5460e083018a610e15565b8281036020840152610e66818a610e15565b90508760408401528281036060840152610e808188610e15565b608084019690965250506001600160a01b0392831660a0820152911660c090910152949350505050565b60008251610ebc818460208701610df1565b919091019291505056fea2646970667358221220849f3e028a14dd0caba34e88e124f67834a95e85298a8ec49d35e542d61e676b64736f6c63430008170033","linkReferences":{}},"methodIdentifiers":{"afterAllHook(bytes,bytes,bytes32,bytes,bytes32,address,address)":"ed463367","afterHook(bytes,bytes,bytes32,bytes,bytes32,address,address)":"d3eddcc5","beforeAllHook(bytes,bytes,bytes32,bytes,bytes32,address,address)":"414c3e33","beforeHook(bytes,bytes,bytes32,bytes,bytes32,address,address)":"a145832a","delegationManager()":"ea4d3c9b"},"id":78}