{"abi":[{"type":"function","name":"afterAllHook","inputs":[{"name":"","type":"bytes","internalType":"bytes"},{"name":"","type":"bytes","internalType":"bytes"},{"name":"","type":"bytes32","internalType":"ModeCode"},{"name":"","type":"bytes","internalType":"bytes"},{"name":"","type":"bytes32","internalType":"bytes32"},{"name":"","type":"address","internalType":"address"},{"name":"","type":"address","internalType":"address"}],"outputs":[],"stateMutability":"nonpayable"},{"type":"function","name":"afterHook","inputs":[{"name":"","type":"bytes","internalType":"bytes"},{"name":"","type":"bytes","internalType":"bytes"},{"name":"","type":"bytes32","internalType":"ModeCode"},{"name":"","type":"bytes","internalType":"bytes"},{"name":"","type":"bytes32","internalType":"bytes32"},{"name":"","type":"address","internalType":"address"},{"name":"","type":"address","internalType":"address"}],"outputs":[],"stateMutability":"nonpayable"},{"type":"function","name":"beforeAllHook","inputs":[{"name":"","type":"bytes","internalType":"bytes"},{"name":"","type":"bytes","internalType":"bytes"},{"name":"","type":"bytes32","internalType":"ModeCode"},{"name":"","type":"bytes","internalType":"bytes"},{"name":"","type":"bytes32","internalType":"bytes32"},{"name":"","type":"address","internalType":"address"},{"name":"","type":"address","internalType":"address"}],"outputs":[],"stateMutability":"nonpayable"},{"type":"function","name":"beforeHook","inputs":[{"name":"_terms","type":"bytes","internalType":"bytes"},{"name":"","type":"bytes","internalType":"bytes"},{"name":"_mode","type":"bytes32","internalType":"ModeCode"},{"name":"_executionCallData","type":"bytes","internalType":"bytes"},{"name":"_delegationHash","type":"bytes32","internalType":"bytes32"},{"name":"_delegator","type":"address","internalType":"address"},{"name":"","type":"address","internalType":"address"}],"outputs":[],"stateMutability":"nonpayable"},{"type":"function","name":"getTermsInfo","inputs":[{"name":"_terms","type":"bytes","internalType":"bytes"}],"outputs":[{"name":"termsData_","type":"tuple","internalType":"struct SpecificActionERC20TransferBatchEnforcer.TermsData","components":[{"name":"tokenAddress","type":"address","internalType":"address"},{"name":"recipient","type":"address","internalType":"address"},{"name":"amount","type":"uint256","internalType":"uint256"},{"name":"firstTarget","type":"address","internalType":"address"},{"name":"firstCalldata","type":"bytes","internalType":"bytes"}]}],"stateMutability":"pure"},{"type":"function","name":"usedDelegations","inputs":[{"name":"delegationManager","type":"address","internalType":"address"},{"name":"delegationHash","type":"bytes32","internalType":"bytes32"}],"outputs":[{"name":"used","type":"bool","internalType":"bool"}],"stateMutability":"view"},{"type":"event","name":"DelegationExecuted","inputs":[{"name":"delegationManager","type":"address","indexed":true,"internalType":"address"},{"name":"delegationHash","type":"bytes32","indexed":true,"internalType":"bytes32"},{"name":"delegator","type":"address","indexed":true,"internalType":"address"}],"anonymous":false}],"bytecode":{"object":"0x608060405234801561001057600080fd5b50610ccf806100206000396000f3fe608060405234801561001057600080fd5b50600436106100625760003560e01c8063414c3e3314610067578063a145832a14610083578063b99deb0e14610096578063b9cf5249146100bf578063d3eddcc514610067578063ed46336714610067575b600080fd5b610081610075366004610958565b50505050505050505050565b005b610081610091366004610958565b6100fa565b6100a96100a4366004610a25565b6106ce565b6040516100b69190610a67565b60405180910390f35b6100ea6100cd366004610af5565b600060208181529281526040808220909352908152205460ff1681565b60405190151581526020016100b6565b8561010981600160f81b610843565b61015a5760405162461bcd60e51b815260206004820181905260248201527f436176656174456e666f726365723a696e76616c69642d63616c6c2d7479706560448201526064015b60405180910390fd5b86600881901b61016b816000610843565b6101c55760405162461bcd60e51b815260206004820152602560248201527f436176656174456e666f726365723a696e76616c69642d657865637574696f6e6044820152642d7479706560d81b6064820152608401610151565b503360009081526020818152604080832088845290915290205460ff1615610245576040805162461bcd60e51b8152602060048201526024810191909152600080516020610c7a83398151915260448201527f456e666f726365723a64656c65676174696f6e2d616c72656164792d757365646064820152608401610151565b336000908152602081815260408083208884529091528120805460ff191660011790553690610274898961085a565b9092509050600281146102dd5760405162461bcd60e51b815260206004820152603b6024820152600080516020610c7a83398151915260448201527f456e666f726365723a696e76616c69642d62617463682d73697a6500000000006064820152608401610151565b60006102e98f8f6106ce565b905080606001516001600160a01b03168383600081811061030c5761030c610b1f565b905060200281019061031e9190610b35565b61032c906020810190610b55565b6001600160a01b031614158061036957508282600081811061035057610350610b1f565b90506020028101906103629190610b35565b6020013515155b806103c757508060800151805190602001208383600081811061038e5761038e610b1f565b90506020028101906103a09190610b35565b6103ae906040810190610b77565b6040516103bc929190610bbe565b604051809103902014155b156104335760405162461bcd60e51b81526020600482015260426024820152600080516020610c7a83398151915260448201527f456e666f726365723a696e76616c69642d66697273742d7472616e736163746960648201526137b760f11b608482015260a401610151565b80516001600160a01b03168383600181811061045157610451610b1f565b90506020028101906104639190610b35565b610471906020810190610b55565b6001600160a01b03161415806104ae57508282600181811061049557610495610b1f565b90506020028101906104a79190610b35565b6020013515155b806104ee5750828260018181106104c7576104c7610b1f565b90506020028101906104d99190610b35565b6104e7906040810190610b77565b9050604414155b80610554575063a9059cbb60e01b8383600181811061050f5761050f610b1f565b90506020028101906105219190610b35565b61052f906040810190610b77565b61053e91600491600091610bce565b61054791610bf8565b6001600160e01b03191614155b806105bf575080602001516001600160a01b03168383600181811061057b5761057b610b1f565b905060200281019061058d9190610b35565b61059b906040810190610b77565b6105aa91602491600491610bce565b6105b391610c28565b6001600160a01b031614155b8061061857508060400151838360018181106105dd576105dd610b1f565b90506020028101906105ef9190610b35565b6105fd906040810190610b77565b61060c91604491602491610bce565b61061591610c28565b14155b156106855760405162461bcd60e51b81526020600482015260436024820152600080516020610c7a83398151915260448201527f456e666f726365723a696e76616c69642d7365636f6e642d7472616e7361637460648201526234b7b760e91b608482015260a401610151565b6040516001600160a01b03881690899033907f76f83a16f9924b51c0c3ad67a44af3e517fbdec68ffa3729776df2ac0f03144090600090a4505050505050505050505050505050565b61071b6040518060a0016040528060006001600160a01b0316815260200160006001600160a01b031681526020016000815260200160006001600160a01b03168152602001606081525090565b605c8210156107805760405162461bcd60e51b815260206004820152603d6024820152600080516020610c7a83398151915260448201527f456e666f726365723a696e76616c69642d7465726d732d6c656e6774680000006064820152608401610151565b61078e601460008486610bce565b61079791610c46565b60601c81526107aa602860148486610bce565b6107b391610c46565b60601c60208201526107c9604860288486610bce565b6107d291610c28565b60408201526107e5605c60488486610bce565b6107ee91610c46565b606090811c9082015261080482605c8186610bce565b8080601f016020809104026020016040519081016040528093929190818152602001838380828437600092019190915250505050608082015292915050565b6001600160f81b0319828116908216145b92915050565b366000833580850160208587010360208201945081359350808460051b8301118360401c17156108925763ba597e7e6000526004601cfd5b83156108e9578392505b6001830392508260051b850135915081850160408101358082018381358201118460408501111782861782351760401c17156108e05763ba597e7e6000526004601cfd5b5050508261089c575b5050509250929050565b60008083601f84011261090557600080fd5b50813567ffffffffffffffff81111561091d57600080fd5b60208301915083602082850101111561093557600080fd5b9250929050565b80356001600160a01b038116811461095357600080fd5b919050565b60008060008060008060008060008060e08b8d03121561097757600080fd5b8a3567ffffffffffffffff8082111561098f57600080fd5b61099b8e838f016108f3565b909c509a5060208d01359150808211156109b457600080fd5b6109c08e838f016108f3565b909a50985060408d0135975060608d01359150808211156109e057600080fd5b506109ed8d828e016108f3565b90965094505060808b01359250610a0660a08c0161093c565b9150610a1460c08c0161093c565b90509295989b9194979a5092959850565b60008060208385031215610a3857600080fd5b823567ffffffffffffffff811115610a4f57600080fd5b610a5b858286016108f3565b90969095509350505050565b6000602080835260018060a01b038085511660208501528060208601511660408501526040850151606085015280606086015116608085015250608084015160a08085015280518060c086015260005b81811015610ad35782810184015186820160e001528301610ab7565b50600060e0828701015260e0601f19601f830116860101935050505092915050565b60008060408385031215610b0857600080fd5b610b118361093c565b946020939093013593505050565b634e487b7160e01b600052603260045260246000fd5b60008235605e19833603018112610b4b57600080fd5b9190910192915050565b600060208284031215610b6757600080fd5b610b708261093c565b9392505050565b6000808335601e19843603018112610b8e57600080fd5b83018035915067ffffffffffffffff821115610ba957600080fd5b60200191503681900382131561093557600080fd5b8183823760009101908152919050565b60008085851115610bde57600080fd5b83861115610beb57600080fd5b5050820193919092039150565b6001600160e01b03198135818116916004851015610c205780818660040360031b1b83161692505b505092915050565b8035602083101561085457600019602084900360031b1b1692915050565b6bffffffffffffffffffffffff198135818116916014851015610c205760149490940360031b84901b169092169291505056fe5370656369666963416374696f6e45524332305472616e736665724261746368a2646970667358221220e8d1de6d5cca88243b7e7a1d3b3a1ae6b1a75dad78f305486212fafaf9e3ca5264736f6c63430008170033","linkReferences":{}},"methodIdentifiers":{"afterAllHook(bytes,bytes,bytes32,bytes,bytes32,address,address)":"ed463367","afterHook(bytes,bytes,bytes32,bytes,bytes32,address,address)":"d3eddcc5","beforeAllHook(bytes,bytes,bytes32,bytes,bytes32,address,address)":"414c3e33","beforeHook(bytes,bytes,bytes32,bytes,bytes32,address,address)":"a145832a","getTermsInfo(bytes)":"b99deb0e","usedDelegations(address,bytes32)":"b9cf5249"},"id":88}