{"abi":[{"type":"function","name":"verify","inputs":[{"name":"message","type":"bytes32","internalType":"bytes32"},{"name":"r","type":"uint256","internalType":"uint256"},{"name":"s","type":"uint256","internalType":"uint256"},{"name":"qx","type":"uint256","internalType":"uint256"},{"name":"qy","type":"uint256","internalType":"uint256"}],"outputs":[{"name":"","type":"bool","internalType":"bool"}],"stateMutability":"view"}],"bytecode":{"object":"0x610c9761003a600b82828239805160001a60731461002d57634e487b7160e01b600052600060045260246000fd5b30600052607381538281f3fe73000000000000000000000000000000000000000030146080604052600436106100355760003560e01c8063a1f312811461003a575b600080fd5b61004d610048366004610bf0565b610061565b604051901515815260200160405180910390f35b600084158061007e5750600080516020610c428339815191528510155b80610087575083155b806100a05750600080516020610c428339815191528410155b156100ad5750600061020a565b6100fe600160601b63ffffffff60c01b03196bfffffffffffffffffffffffd63ffffffff60c01b03197f5ac635d8aa3a93e7b3ebbd55769886bc651d06b0cc53b0f63bce3c3e27d2604b8686610213565b151560000361010f5750600061020a565b600061011a856102be565b90506000600080516020610c4283398151915282890990506000600080516020610c42833981519152838909905060006040518060c00160405280888152602001878152602001600160601b63ffffffff60c01b031981526020016bfffffffffffffffffffffffd63ffffffff60c01b031981526020017f6b17d1f2e12c4247f8bce6e563a440f277037d812deb33a0f4a13945d898c29681526020017f4fe342e2fe1a7f9b8ee7eb4a7c0f9e162bce33576b315ececbb6406837bf51f5815250905060006101ea828585610337565b509050600080516020610c428339815191528a8103820815955050505050505b95945050505050565b600082158015610221575081155b8061022c5750858310155b806102375750858210155b156102445750600061020a565b6000868061025457610254610c2b565b83840990506000878061026957610269610c2b565b888061027757610277610c2b565b888709898061028857610288610c2b565b878b8061029757610297610c2b565b898a090908905087806102ac576102ac610c2b565b86820891909114979650505050505050565b600060405160208152602080820152602060408201528260608201527fffffffff00000000ffffffffffffffffbce6faada7179e84f3b9cac2fc63254f6080820152600080516020610c4283398151915260a082015260208160c0836005600019fa610330576107fe60405260206040fd5b5192915050565b600080600160ff1b8415801561034b575083155b1561035d576000809250925050610be8565b60008061080060405101604052604088015161082060405101526108206040510151610466565b6000806000808886600209898182098a8188098b82840992508b8c8d8c8d098f098d8e8b8c096003090895508b8b840993508b8a830994508b8c8260028f03098d8889090896508b8c828e03890887099150508a818c8a8509089450505082890392509650965096509692505050565b9086039086828186890908955086818803888588090894506000806000808a898a0993508a89850992508a84880991508a83890990508a84860996508a8b8860028e03098c858e038e8e8f09080893508a8a8c868e038a080994508a8b84880986089250975097509750979350505050565b60a0898101516080808c01516040519182015291820152600160c0820181905260e0909101526104a760608a01518260018060a08e015160808f0151610384565b95509350955095506104d683838789610100604051019081526020810191909152604081019190915260600152565b6104ed8160a08b015160808c015186868a8c6103f4565b955093509550955061051c83838789610180604051019081526020810191909152604081019190915260600152565b61054c60018060208c015160008d0151610200604051019081526020810191909152604081019190915260600152565b6080890151955060a089015194506105728160208b015160008c01516001808a8c6103f4565b95509350955095506105a183838789610280604051019081526020810191909152604081019190915260600152565b6105b88160a08b015160808c015186868a8c6103f4565b95509350955095506105e783838789610300604051019081526020810191909152604081019190915260600152565b6105fe8160a08b015160808c015186868a8c6103f4565b955093509550955061062d83838789610380604051019081526020810191909152604081019190915260600152565b600089015195506020890151945061064e60608a015182600180898b610384565b955093509550955061067d83838789610400604051019081526020810191909152604081019190915260600152565b6106948160a08b015160808c015186868a8c6103f4565b95509350955095506106c383838789610480604051019081526020810191909152604081019190915260600152565b6106da8160a08b015160808c015186868a8c6103f4565b955093509550955061070983838789610500604051019081526020810191909152604081019190915260600152565b6107208160a08b015160808c015186868a8c6103f4565b955093509550955061074f83838789610580604051019081526020810191909152604081019190915260600152565b6104006040510151955061042060405101519450610440604051015191506104606040510151925061078e8160208b015160008c015186868a8c6103f4565b95509350955095506107bd83838789610600604051019081526020810191909152604081019190915260600152565b6107d48160a08b015160808c015186868a8c6103f4565b955093509550955061080383838789610680604051019081526020810191909152604081019190915260600152565b61081a8160a08b015160808c015186868a8c6103f4565b955093509550955061084983838789610700604051019081526020810191909152604081019190915260600152565b6108608160a08b015160808c015186868a8c6103f4565b95509350955095505061089082828688610780604051019081526020810191909152604081019190915260600152565b600091505b816108d5578286161560010360031b8360011c87161560010360021b018388161560010360011b8460011c891615600103010191508260021c9250610895565b506040805160079290921b82018051602082015192820151606090920151610820850151919750929550919290915b8415610b7d5780866002098181820982818a09838284099250838487880960608f015109848186878e8f09600309089050848885099750848784099650600285039a508485838d0986838409089a5084858387038d088209925050508281848a850908830397508291508790506002098181820982818a09838284099250838487880960608f015109848186878e8f09600309089050848885099750848784099650600285039a508485838d0986838409089a5084858387038d088209925050508281848a850908975050508488161560010360031b8560011c89161560010360021b01858a161560010360011b8660011c8b1615600103010180610a0d575094850394610b72565b60071b828101805160609091015161086085015284610a48579083016020810151604082015160609092015192995097509094509250610b72565b82836108608601518a09848885602001880151090861084085015290830160400151908280838b0984038487840908610840850151610b005780610b005783896002860309925083838409905083818b09610840860152838184099250838487880960608f0151099150838285868d8e09600309089150838784099650838682099550838461084087015160028703098584850908995083848b8603610840880151088309905083848a850982089850505050610b72565b83818209915083818309905083838584890909955083838b0992508361086086015185838a09099650838485846002880309850985838703876108408a01516108408b01510908089950838284099150838482866108608901518d090985610840880151878e89038708090898505050505b8460021c9450610904565b61088060408190526108e085905260208082526108a08190526108c08190526001198301610900526109208390529092508260c0816005600019fa610bc8576107ff60405260206040fd5b808251870995508082518409925080838409925080838809965050505050505b935093915050565b600080600080600060a08688031215610c0857600080fd5b505083359560208501359550604085013594606081013594506080013592509050565b634e487b7160e01b600052601260045260246000fdfeffffffff00000000ffffffffffffffffbce6faada7179e84f3b9cac2fc632551a26469706673582212202032a0a92437c4c7498b5f3dbbeea2851a22a8974a563aed836730aa07e1cdda64736f6c63430008170033","linkReferences":{}},"methodIdentifiers":{"verify(bytes32,uint256,uint256,uint256,uint256)":"a1f31281"},"id":6}