{"abi":[{"type":"function","name":"afterAllHook","inputs":[{"name":"","type":"bytes","internalType":"bytes"},{"name":"","type":"bytes","internalType":"bytes"},{"name":"","type":"bytes32","internalType":"ModeCode"},{"name":"","type":"bytes","internalType":"bytes"},{"name":"","type":"bytes32","internalType":"bytes32"},{"name":"","type":"address","internalType":"address"},{"name":"","type":"address","internalType":"address"}],"outputs":[],"stateMutability":"nonpayable"},{"type":"function","name":"afterHook","inputs":[{"name":"","type":"bytes","internalType":"bytes"},{"name":"","type":"bytes","internalType":"bytes"},{"name":"","type":"bytes32","internalType":"ModeCode"},{"name":"","type":"bytes","internalType":"bytes"},{"name":"","type":"bytes32","internalType":"bytes32"},{"name":"","type":"address","internalType":"address"},{"name":"","type":"address","internalType":"address"}],"outputs":[],"stateMutability":"nonpayable"},{"type":"function","name":"beforeAllHook","inputs":[{"name":"","type":"bytes","internalType":"bytes"},{"name":"","type":"bytes","internalType":"bytes"},{"name":"","type":"bytes32","internalType":"ModeCode"},{"name":"","type":"bytes","internalType":"bytes"},{"name":"","type":"bytes32","internalType":"bytes32"},{"name":"","type":"address","internalType":"address"},{"name":"","type":"address","internalType":"address"}],"outputs":[],"stateMutability":"nonpayable"},{"type":"function","name":"beforeHook","inputs":[{"name":"_terms","type":"bytes","internalType":"bytes"},{"name":"_args","type":"bytes","internalType":"bytes"},{"name":"_mode","type":"bytes32","internalType":"ModeCode"},{"name":"_executionCallData","type":"bytes","internalType":"bytes"},{"name":"_delegationHash","type":"bytes32","internalType":"bytes32"},{"name":"","type":"address","internalType":"address"},{"name":"_redeemer","type":"address","internalType":"address"}],"outputs":[],"stateMutability":"nonpayable"},{"type":"function","name":"getAllTermsInfo","inputs":[{"name":"_terms","type":"bytes","internalType":"bytes"}],"outputs":[{"name":"tokens_","type":"address[]","internalType":"address[]"},{"name":"periodAmounts_","type":"uint256[]","internalType":"uint256[]"},{"name":"periodDurations_","type":"uint256[]","internalType":"uint256[]"},{"name":"startDates_","type":"uint256[]","internalType":"uint256[]"}],"stateMutability":"pure"},{"type":"function","name":"getAvailableAmount","inputs":[{"name":"_delegationHash","type":"bytes32","internalType":"bytes32"},{"name":"_delegationManager","type":"address","internalType":"address"},{"name":"_terms","type":"bytes","internalType":"bytes"},{"name":"_args","type":"bytes","internalType":"bytes"}],"outputs":[{"name":"availableAmount_","type":"uint256","internalType":"uint256"},{"name":"isNewPeriod_","type":"bool","internalType":"bool"},{"name":"currentPeriod_","type":"uint256","internalType":"uint256"}],"stateMutability":"view"},{"type":"function","name":"getHashKey","inputs":[{"name":"_caller","type":"address","internalType":"address"},{"name":"_token","type":"address","internalType":"address"},{"name":"_delegationHash","type":"bytes32","internalType":"bytes32"},{"name":"_index","type":"uint256","internalType":"uint256"}],"outputs":[{"name":"","type":"bytes32","internalType":"bytes32"}],"stateMutability":"pure"},{"type":"function","name":"getTermsInfo","inputs":[{"name":"_terms","type":"bytes","internalType":"bytes"},{"name":"_tokenIndex","type":"uint256","internalType":"uint256"}],"outputs":[{"name":"token_","type":"address","internalType":"address"},{"name":"periodAmount_","type":"uint256","internalType":"uint256"},{"name":"periodDuration_","type":"uint256","internalType":"uint256"},{"name":"startDate_","type":"uint256","internalType":"uint256"}],"stateMutability":"pure"},{"type":"function","name":"periodicAllowances","inputs":[{"name":"hashKey","type":"bytes32","internalType":"bytes32"}],"outputs":[{"name":"periodAmount","type":"uint256","internalType":"uint256"},{"name":"periodDuration","type":"uint256","internalType":"uint256"},{"name":"startDate","type":"uint256","internalType":"uint256"},{"name":"lastTransferPeriod","type":"uint256","internalType":"uint256"},{"name":"transferredInCurrentPeriod","type":"uint256","internalType":"uint256"}],"stateMutability":"view"},{"type":"event","name":"TransferredInPeriod","inputs":[{"name":"sender","type":"address","indexed":true,"internalType":"address"},{"name":"redeemer","type":"address","indexed":true,"internalType":"address"},{"name":"delegationHash","type":"bytes32","indexed":true,"internalType":"bytes32"},{"name":"token","type":"address","indexed":false,"internalType":"address"},{"name":"periodAmount","type":"uint256","indexed":false,"internalType":"uint256"},{"name":"periodDuration","type":"uint256","indexed":false,"internalType":"uint256"},{"name":"startDate","type":"uint256","indexed":false,"internalType":"uint256"},{"name":"transferredInCurrentPeriod","type":"uint256","indexed":false,"internalType":"uint256"},{"name":"transferTimestamp","type":"uint256","indexed":false,"internalType":"uint256"}],"anonymous":false}],"bytecode":{"object":"0x608060405234801561001057600080fd5b5061148b806100206000396000f3fe608060405234801561001057600080fd5b50600436106100935760003560e01c8063a145832a11610066578063a145832a1461014b578063d3eddcc5146100c4578063da8081c21461015e578063ed463367146100c4578063f5c7d74e146101c357600080fd5b806319de6ebc14610098578063414c3e33146100c4578063733c0d80146100e05780638572e3191461011d575b600080fd5b6100ab6100a6366004610f6f565b6101e4565b6040516100bb9493929190610fed565b60405180910390f35b6100de6100d2366004611094565b50505050505050505050565b005b6100f36100ee366004611161565b6104b6565b604080516001600160a01b03909516855260208501939093529183015260608201526080016100bb565b61013061012b3660046111ad565b61062a565b604080519384529115156020840152908201526060016100bb565b6100de610159366004611094565b6106fc565b61019b61016c366004611237565b600060208190529081526040902080546001820154600283015460038401546004909401549293919290919085565b604080519586526020860194909452928401919091526060830152608082015260a0016100bb565b6101d66101d1366004611250565b6107de565b6040519081526020016100bb565b6060808080846101f56074826112a8565b15801561020157508015155b6102265760405162461bcd60e51b815260040161021d906112bc565b60405180910390fd5b600061023360748361130d565b90508067ffffffffffffffff81111561024e5761024e611321565b604051908082528060200260200182016040528015610277578160200160208202803683370190505b5095508067ffffffffffffffff81111561029357610293611321565b6040519080825280602002602001820160405280156102bc578160200160208202803683370190505b5094508067ffffffffffffffff8111156102d8576102d8611321565b604051908082528060200260200182016040528015610301578160200160208202803683370190505b5093508067ffffffffffffffff81111561031d5761031d611321565b604051908082528060200260200182016040528015610346578160200160208202803683370190505b50925060005b818110156104aa576000610361826074611337565b905089818a61037182601461134e565b9261037e93929190611361565b6103879161138b565b60601c88838151811061039c5761039c6113c0565b6001600160a01b039092166020928302919091019091015289896103c183601461134e565b906103cd84603461134e565b926103da93929190611361565b6103e3916113d6565b60001c8783815181106103f8576103f86113c0565b6020908102919091010152898961041083603461134e565b9061041c84605461134e565b9261042993929190611361565b610432916113d6565b60001c868381518110610447576104476113c0565b6020908102919091010152898961045f83605461134e565b9061046b84607461134e565b9261047893929190611361565b610481916113d6565b60001c858381518110610496576104966113c0565b60209081029190910101525060010161034c565b50505092959194509250565b60008080808580158015906104d357506104d16074826112a8565b155b6104ef5760405162461bcd60e51b815260040161021d906112bc565b60006104fc60748361130d565b90508087106105505760405162461bcd60e51b815260206004820152602c602482015260008051602061143683398151915260448201526b05ae8ded6cadc5ad2dcc8caf60a31b606482015260840161021d565b600061055d886074611337565b905089818a61056d82601461134e565b9261057a93929190611361565b6105839161138b565b60601c9650898961059583601461134e565b906105a184603461134e565b926105ae93929190611361565b6105b7916113d6565b955089896105c683603461134e565b906105d284605461134e565b926105df93929190611361565b6105e8916113d6565b945089896105f783605461134e565b9061060384607461134e565b9261061093929190611361565b610619916113d6565b60001c935050505093509350935093565b60008060008060008060006106438d8d8d8d8d8d6107f5565b60008481526020818152604091829020825160a081018452815481526001820154928101929092526002810154928201839052600381015460608301526004015460808201529498509296509094509250156106b2576106a28161083c565b97509750975050505050506106f0565b6040805160a0810182528581526020810185905290810183905260006060820181905260808201526106e38161083c565b9850985098505050505050505b96509650969350505050565b856107088160006108d0565b6107545760405162461bcd60e51b815260206004820181905260248201527f436176656174456e666f726365723a696e76616c69642d63616c6c2d74797065604482015260640161021d565b86600881901b6107658160006108d0565b6107bf5760405162461bcd60e51b815260206004820152602560248201527f436176656174456e666f726365723a696e76616c69642d657865637574696f6e6044820152642d7479706560d81b606482015260840161021d565b506107d08c8c8c8c8b8b8b8a6108e7565b505050505050505050505050565b60006107ec85858585610e8b565b95945050505050565b60008080808061080786880188611237565b905060006108168a8a846104b6565b91975095509350905061082b8b828e85610e8b565b955050509650965096509692505050565b6000806000836040015142101561085b575060009150819050806108c9565b6020840151604085015161086f90426113f4565b610879919061130d565b61088490600161134e565b9050808460600151141591506000826108a15784608001516108a4565b60005b9050808560000151116108b85760006108c5565b84516108c59082906113f4565b9350505b9193909250565b6001600160f81b0319828116908216145b92915050565b6000806000803660006108fa8a8a610ed5565b935093509350935081819050604403610a0657821561096f5760405162461bcd60e51b8152602060048201526038602482015260008051602061143683398151915260448201527f2d76616c75652d696e2d65726332302d7472616e736665720000000000000000606482015260840161021d565b63a9059cbb60e01b610985600460008486611361565b61098e91611407565b6001600160e01b031916146109e35760405162461bcd60e51b815260206004820152602760248201526000805160206114368339815191526044820152660b5b595d1a1bd960ca1b606482015260840161021d565b92935083926109f6604460248385611361565b6109ff916113d6565b9550610acf565b6000819003610a7f5760008311610a735760405162461bcd60e51b815260206004820152603e602482015260008051602061143683398151915260448201527f2d7a65726f2d76616c75652d696e2d6e61746976652d7472616e736665720000606482015260840161021d565b60009450829550610acf565b60405162461bcd60e51b8152602060048201526031602482015260008051602061143683398151915260448201527005ac6c2d8d85ac8c2e8c25ad8cadccee8d607b1b606482015260840161021d565b5060009250610ae3915050888a018a611237565b9050600080600080610af68f8f876104b6565b9350935093509350836001600160a01b0316866001600160a01b031614610b6f5760405162461bcd60e51b815260206004820152602760248201527f4d756c7469546f6b656e506572696f64456e666f726365723a746f6b656e2d6d6044820152660d2e6dac2e8c6d60cb1b606482015260840161021d565b6000610b7d33888c89610e8b565b60008181526020819052604081206002810154929350919003610d1f5760008311610bf15760405162461bcd60e51b8152602060048201526030602482015260008051602061143683398151915260448201526f2d7a65726f2d73746172742d6461746560801b606482015260840161021d565b60008511610c4b5760405162461bcd60e51b815260206004820152603360248201526000805160206114368339815191526044820152720b5e995c9bcb5c195c9a5bd90b585b5bdd5b9d606a1b606482015260840161021d565b60008411610ca75760405162461bcd60e51b8152602060048201526035602482015260008051602061143683398151915260448201527416bd32b93796b832b934b7b216b23ab930ba34b7b760591b606482015260840161021d565b82421015610d0d5760405162461bcd60e51b815260206004820152602d60248201527f4d756c7469546f6b656e506572696f64456e666f726365723a7472616e73666560448201526c1c8b5b9bdd0b5cdd185c9d1959609a1b606482015260840161021d565b84815560018101849055600281018390555b6000806000610d6a846040518060a00160405290816000820154815260200160018201548152602001600282015481526020016003820154815260200160048201548152505061083c565b925092509250828c1115610dda5760405162461bcd60e51b815260206004820152603160248201527f4d756c7469546f6b656e506572696f64456e666f726365723a7472616e7366656044820152701c8b585b5bdd5b9d0b595e18d959591959607a1b606482015260840161021d565b8115610def5760038401819055600060048501555b8b846004016000828254610e03919061134e565b90915550506004840154604080516001600160a01b038e81168252602082018c90529181018a90526060810189905260808101929092524260a08301528f91908f169033907fb2a345c7f80b4be490c405f4a994faf85384dd05da7d70be0801dc31a8c253af9060c00160405180910390a45050505050505050505050505050505050505050565b604080516001600160a01b03958616602080830191909152949095168582015260608501929092526080808501919091528151808503909101815260a09093019052815191012090565b6000803681610ee76014828789611361565b610ef09161138b565b60601c9350610f03603460148789611361565b610f0c916113d6565b9250610f1b8560348189611361565b949793965094505050565b60008083601f840112610f3857600080fd5b50813567ffffffffffffffff811115610f5057600080fd5b602083019150836020828501011115610f6857600080fd5b9250929050565b60008060208385031215610f8257600080fd5b823567ffffffffffffffff811115610f9957600080fd5b610fa585828601610f26565b90969095509350505050565b60008151808452602080850194506020840160005b83811015610fe257815187529582019590820190600101610fc6565b509495945050505050565b6080808252855190820181905260009060209060a0840190828901845b8281101561102f5781516001600160a01b03168452928401929084019060010161100a565b50505083810360208501526110448188610fb1565b91505082810360408401526110598186610fb1565b9050828103606084015261106d8185610fb1565b979650505050505050565b80356001600160a01b038116811461108f57600080fd5b919050565b60008060008060008060008060008060e08b8d0312156110b357600080fd5b8a3567ffffffffffffffff808211156110cb57600080fd5b6110d78e838f01610f26565b909c509a5060208d01359150808211156110f057600080fd5b6110fc8e838f01610f26565b909a50985060408d0135975060608d013591508082111561111c57600080fd5b506111298d828e01610f26565b90965094505060808b0135925061114260a08c01611078565b915061115060c08c01611078565b90509295989b9194979a5092959850565b60008060006040848603121561117657600080fd5b833567ffffffffffffffff81111561118d57600080fd5b61119986828701610f26565b909790965060209590950135949350505050565b600080600080600080608087890312156111c657600080fd5b863595506111d660208801611078565b9450604087013567ffffffffffffffff808211156111f357600080fd5b6111ff8a838b01610f26565b9096509450606089013591508082111561121857600080fd5b5061122589828a01610f26565b979a9699509497509295939492505050565b60006020828403121561124957600080fd5b5035919050565b6000806000806080858703121561126657600080fd5b61126f85611078565b935061127d60208601611078565b93969395505050506040820135916060013590565b634e487b7160e01b600052601260045260246000fd5b6000826112b7576112b7611292565b500690565b6020808252602d9082015260008051602061143683398151915260408201526c05ae8cae4dae65ad8cadccee8d609b1b606082015260800190565b634e487b7160e01b600052601160045260246000fd5b60008261131c5761131c611292565b500490565b634e487b7160e01b600052604160045260246000fd5b80820281158282048414176108e1576108e16112f7565b808201808211156108e1576108e16112f7565b6000808585111561137157600080fd5b8386111561137e57600080fd5b5050820193919092039150565b6bffffffffffffffffffffffff1981358181169160148510156113b85780818660140360031b1b83161692505b505092915050565b634e487b7160e01b600052603260045260246000fd5b803560208310156108e157600019602084900360031b1b1692915050565b818103818111156108e1576108e16112f7565b6001600160e01b031981358181169160048510156113b85760049490940360031b84901b169092169291505056fe4d756c7469546f6b656e506572696f64456e666f726365723a696e76616c6964a264697066735822122024c53d9970ff849bf9025e90cc5d34bfc99b0f5ee6a61ef6c48512264a9b0a3164736f6c63430008170033","linkReferences":{}},"methodIdentifiers":{"afterAllHook(bytes,bytes,bytes32,bytes,bytes32,address,address)":"ed463367","afterHook(bytes,bytes,bytes32,bytes,bytes32,address,address)":"d3eddcc5","beforeAllHook(bytes,bytes,bytes32,bytes,bytes32,address,address)":"414c3e33","beforeHook(bytes,bytes,bytes32,bytes,bytes32,address,address)":"a145832a","getAllTermsInfo(bytes)":"19de6ebc","getAvailableAmount(bytes32,address,bytes,bytes)":"8572e319","getHashKey(address,address,bytes32,uint256)":"f5c7d74e","getTermsInfo(bytes,uint256)":"733c0d80","periodicAllowances(bytes32)":"da8081c2"},"id":79}